:100000000C9448000C947C000C947C000C947C00B4
:100010000C947C000C947C000C947C000C947C0070
:100020000C947C000C940B0A0C94B4080C94DA0920
:100030000C9447090C9478090C9483080C941609C5
:100040000C948C050C947C000C942E030C94BD0332
:100050000C947C000C947C000C947C000C947C0030
:100060000C94A9090C94CF0A0C943C0A0C946D0AC8
:100070000C949E0A0C94E5080C94FF020C947603F1
:100080000C947C000C947C000C947C00E5040C0522
:1000900011241FBECFEFD0E1DEBFCDBF88E483BF08
:1000A00084E00E94E10612BE87B7816087BF789422
:1000B00011E0A0E0B1E0ECEFFBE100E00BBF02C01B
:1000C00007900D92A436B107D9F712E0A4E6B1E08B
:1000D00001C01D92AD34B107E1F710E0C0E9D0E0F6
:1000E00004C02297FE010E94F80DCC38D107C9F751
:1000F0000E94000B0C94FC0D0C9400001F93CF93F6
:10010000DF93C0E0D0E0FE01EF5CFE4F1081812F55
:1001100061E00E942706812F61E00E945706FE01E0
:10012000E75CFE4F808160E070E00E94CC07229681
:10013000C830D10541F7DF91CF911F910895FC019F
:1001400010828AE090E0938382830895CF93DF93B7
:10015000EC01882777FD8095982F0E94E50C20E020
:1001600030E044E353E40E944A0C20E030E040EFEA
:1001700051E40E94710D20E030E040E251E40E9421
:10018000E60B0E94B70CCB016A30710510F48AE0CF
:1001900090E08932910510F088E290E09B838A8399
:1001A000DF91CF910895E0910401E7FD15C0FF278D
:1001B000E7FDF095EE0FFF1FEC59FE4F0190F08127
:1001C000E02D818160E00E94570606C02F5F81917B
:1001D0009191892B69F00EC0209104012F5FE22FCD
:1001E000FF27E7FDF0952150EE0FFF1FEC59FE4F62
:1001F000273064F320930401E0910401FF27E7FD19
:10020000F095EE0FFF1FEC59FE4F0190F081E02DAD
:10021000309761F48FEF8093040124EF31E08091F7
:10022000750190917601281B390B12C0818161E024
:100230000E945706E0910401FF27E7FDF095EE0FBD
:10024000FF1FEC59FE4F0190F081E02D2281338198
:1002500083B5820F83BD8091750190917601820FE5
:10026000931F9093760180937501845F914020F0F5
:10027000109276011092750108950E94F90687B7D1
:100280008F7787BF85E00E94F40689E063ED70E018
:100290000E94150783B58C5083BD87B7806887BFE0
:1002A00010927601109275018FEF809304010895EA
:1002B000CF93DF93EC0180917401893010F080E0DE
:1002C0003DC06983862F61E00E942706E881F0E047
:1002D000EE0FFF1FEC59FE4F80819181C817D9079F
:1002E00061F140917401442341F4E4E6F1E011929C
:1002F000119281E0E437F807D1F7E4E6F1E020E07D
:1003000030E080819181892B61F4F901EE0FFF1FAC
:10031000EC59FE4FD183C08328834F5F4093740113
:1003200006C02F5F3F4F32962830310551F780913C
:100330007401813011F40E943D0181E0DF91CF9181
:100340000895CF93DF93EC018A8160E00E94570605
:100350008D8160E00E9487068D8160E00E94A90681
:100360008B8161E00E9457068C8161E00E945706F4
:100370000000000010C08C8160E00E945706000061
:100380000000000000008C8161E00E945706000020
:100390000000000000008D810E949E0687FDEBCFCB
:1003A0008C8160E00E945706DF91CF910895FF9203
:1003B0000F931F938C01F62E0E94A101F8018281F8
:1003C00061E00E945706F801838160E00E945706B1
:1003D000F801848161E00E945706F801858161E09F
:1003E0000E948706F80185816F2D0E94A9060000F2
:1003F000000000000000F801848160E00E945706C0
:10040000F801858160E00E948706F80185816FEF21
:100410000E94A9061F910F91FF900895EF92FF92FD
:100420000F931F93CF93DF937C01042F6115710508
:1004300051F0EB0110E005C0C70169910E94D7019E
:100440001F5F1017C8F3DF91CF911F910F91FF909D
:10045000EF900895DF93CF930F92CDB7DEB7698306
:10046000BE016F5F7F4F41E00E940E020F90CF915F
:10047000DF910895FF920F931F938C01F62E0E9437
:10048000A101F801828160E00E945706F801838192
:1004900060E00E945706F801848161E00E945706DF
:1004A000F801858161E00E948706F80185816F2D42
:1004B0000E94A9060000000000000000F8018481ED
:1004C00060E00E945706F801858160E00E9487067F
:1004D000F80185816FEF0E94A9061F910F91FF908F
:1004E000089562E00E943A02089561E00E943A0293
:1004F00008950F931F938C01FC01828160E00E949C
:100500005706F801838160E00E945706F801848154
:1005100060E00E945706F801828161E00E94270690
:10052000F801838161E00E942706F801848161E07F
:100530000E942706F801858160E00E948706F80185
:1005400085816FEF0E94A9061F910F9108950F9367
:100550001F938C010E947902C80168E30E943A024D
:10056000C80161E00E943A02C80166E00E943A02B6
:10057000C8016CE00E943A02C80162E00E943A029F
:10058000C80160E80E943A021F910F9108950F93ED
:10059000FC0185E491E0918380836283438324831B
:1005A0000583CF010E94A7020F910895FC012481C9
:1005B0003581C9010895DC01FC0182819381809716
:1005C00014F080E00895FD01828193810196938368
:1005D000828384819581E80FF91F60870196FD0170
:1005E000958384832D913C9111978217930714F47E
:1005F00081E00895FD011582148281E008951F9223
:100600000F920FB60F920BB60F9211242F933F93B8
:100610004F935F936F937F938F939F93AF93BF930A
:10062000EF93FF93E0910D02F0910E02608185EC53
:1006300091E00E94DB02FF91EF91BF91AF919F91FA
:100640008F917F916F915F914F913F912F910F907B
:100650000BBE0F900FBE0F901F9018951F920F9218
:100660000FB60F920BB60F9211242F933F934F9317
:100670005F936F937F938F939F93AF93BF93EF930A
:10068000FF93E091C101F091C201608189E791E09F
:100690000E94DB02FF91EF91BF91AF919F918F91EB
:1006A0007F916F915F914F913F912F910F900BBE72
:1006B0000F900FBE0F901F901895DC01FC018281F6
:1006C000938101979383828386819781E80FF91F35
:1006D00040850196FD01978386832D913C91821779
:1006E000930714F017821682842F08951F920F9299
:1006F0000FB60F920BB60F9211240F931F932F93E7
:100700003F934F935F936F937F938F939F93AF9399
:10071000BF93EF93FF938091EF019091F001181632
:10072000190654F400910D0210910E028DEE91E025
:100730000E945D03F80180838091EF019091F001A8
:10074000892B31F4E0910B02F0910C0288E980834F
:10075000FF91EF91BF91AF919F918F917F916F9199
:100760005F914F913F912F911F910F910F900BBE71
:100770000F900FBE0F901F9018951F920F920FB6FB
:100780000F920BB60F9211240F931F932F933F9349
:100790004F935F936F937F938F939F93AF93BF9389
:1007A000EF93FF938091A3019091A401181619066D
:1007B00054F40091C1011091C20181EA91E00E94BC
:1007C0005D03F80180838091A3019091A401892B9E
:1007D00031F4E091BF01F091C00188E98083FF917D
:1007E000EF91BF91AF919F918F917F916F915F91A9
:1007F0004F913F912F911F910F910F900BBE0F9032
:100800000FBE0F901F901895DC01FC01828193812F
:1008100001979383828386819781E80FF91F408532
:100820000196FD01978386832D913C918217930752
:1008300014F017821682842F0895FC01848195811B
:10084000892B19F42FEF3FEF06C0CF0102960E94CB
:100850000404282F30E0C9010895CF93DF93EC0101
:10086000EE81FF81E80FF91F8085DF91CF91089518
:10087000FC0184819581892B19F42FEF3FEF06C08D
:10088000CF0102960E942D04282F30E0C90108955F
:10089000FC011382128282819381978386839583E0
:1008A0008483089502960E9448040895FC0180E222
:1008B00090E091838083CF010E9448040895DC0179
:1008C000FC0182819381409714F080E00895FD013E
:1008D0008281938101969383828384819581E80F3D
:1008E000F91F60870196FD01958384832D913C91CA
:1008F00011978217930714F481E00895FD01158282
:10090000148281E00895CF93DF93EC018CA59DA51F
:100910004097E4F7F894CE018A960E945F04C85B82
:10092000DF4FE881F9818081806280837894DF9154
:10093000CF910895FC011382128282819381978363
:100940008683958384830895FC0180E190E0918300
:100950008083CF010E949A0408956F927F928F92B4
:100960009F92AF92BF92CF92DF92EF92FF920F933E
:100970001F936C015B014A013901FC018BE491E09A
:1009800081939193CF010E945604C6018A960E94DA
:10099000A40482E490E0C80ED91EF601A192B1929F
:1009A000819291926192719201931193F182E0820E
:1009B0001F910F91FF90EF90DF90CF90BF90AF907D
:1009C0009F908F907F906F900895EF92FF920F937A
:1009D0001F9387E791E060E970E049E250E02BE285
:1009E00030E00AE210E0FCE2EF2EF12C0E94AD04B0
:1009F00083EC91E068E970E049E950E02BE930E0F0
:100A00000AE910E0ECE9EE2EF12C0E94AD041F91F2
:100A10000F91FF90EF9008950F938FE092E06AE1BD
:100A20004BE12CE102E00E94C70285E192E00E94C6
:100A30007E0087E192E00E949F008BE192E00E949D
:100A40009F008FE192E00E949F000F910895CF9246
:100A5000DF92EF92FF920F931F9386E00E94BD06F4
:100A6000AA2797FDA095BA2FBC01CD010E94E50CE5
:100A700020E030E040EB50E40E944A0C0E94B20CAF
:100A80006B017C0187E192E0B6010E94A6000FE0B5
:100A900012E0C8010E947502C8010E947102C801DB
:100AA000B6010E94DD0B65E070E080E090E00E94FE
:100AB00001061F910F91FF90EF90DF90CF90089566
:100AC0000F931F9380E060E00E94870681E060E062
:100AD0000E94870687E192E063E270E00E9458017D
:100AE0008BE192E06FE170E00E9458018FE192E0AB
:100AF00062E270E00E9458010FE012E0C8010E941B
:100B00007502C8010E947102C80160E071E00E9494
:100B1000190B1F910F9108951F920F920FB60F920C
:100B200011242F933F938F939F93AF93BF93809103
:100B3000270290912802A0912902B0912A023091B7
:100B40002B020196A11DB11D232F2D5F2D3720F003
:100B50002D570196A11DB11D20932B0280932702D2
:100B600090932802A0932902B0932A028091230235
:100B700090912402A0912502B09126020196A11D18
:100B8000B11D8093230290932402A0932502B09379
:100B90002602BF91AF919F918F913F912F910F901E
:100BA0000FBE0F901F9018956FB7F89420912302F5
:100BB00030912402409125025091260282B790E0A4
:100BC000A0E0B0E006B600FE09C08F3F9105A10588
:100BD000B10521F02F5F3F4F4F4F5F4F6FBF542F35
:100BE000432F322F2227280F391F4A1F5B1F82E015
:100BF000220F331F441F551F8A95D1F7B901CA012F
:100C00000895EF92FF920F931F93CF93DF937B0191
:100C10008C010E94D405EB010EC00E94D4056C1B10
:100C20007D0B685E7340C8F30894E108F108010980
:100C30001109C851DC4FE114F1040105110569F7F0
:100C4000DF91CF911F910F91FF90EF900895E82FC2
:100C5000E695E695E695A82FB0E0613099F42FB7B8
:100C6000F894F0E0EE0FFF1FED5EFE4F0190F08173
:100C7000E02D9081A770B070AB5ABE4F8C91982B2D
:100C8000908313C02FB7F894F0E0EE0FFF1FED5ED6
:100C9000FE4F0190F081E02D9081A770B070AB5AAB
:100CA000BE4F8C918095892380832FBF0895E82FB4
:100CB000E695E695E695A82FB0E0613099F42FB758
:100CC000F894F0E0EE0FFF1FEB5FFE4F0190F08114
:100CD000E02D9081A770B070AB5ABE4F8C91982BCD
:100CE000908313C02FB7F894F0E0EE0FFF1FEB5F77
:100CF000FE4F0190F081E02D9081A770B070AB5A4B
:100D0000BE4F8C918095892380832FBF0895E82F53
:100D1000F0E0613051F4EE0FFF1FED5EFE4F0190E9
:100D2000F081E02D8FEF80830895EE0FFF1FED5EC1
:100D3000FE4F0190F081E02D10820895E82FF0E041
:100D4000EE0FFF1FEF5DFE4F0190F081E02D8081DF
:100D50000895E82FF0E0EE0FFF1FEB5FFE4F0190CC
:100D6000F081E02D6083089510926100109262007E
:100D700080E487B987EE86B908951F93182F809174
:100D80002F01813021F40E94B40610922F0180912E
:100D90003001181721F4349A349BFECF0DC0109304
:100DA000300187B11770807E812B87B9349A349BCC
:100DB000FECF349A349BFECF24B135B1C9011F91C7
:100DC000089593B7987F982B93BF08959EB5987F09
:100DD000982B9EBD089583E00E94E6061DBC1CBCB6
:100DE00087B7846087BF089595B5987F982B95BD88
:100DF000089582E00E94F40614BC87B7806487BF20
:100E00000895EAE8F0E09081987F982B9083089508
:100E100083E00E9401071092890010928800EDE79C
:100E2000F0E08081846080830895803140F4E82F71
:100E3000F0E0EE0FFF1FE35DFD4F718360830895C7
:100E4000893031F48FB582608FBD8FB58E7F0AC037
:100E50008A3019F48FB5826002C08FB58D7F8FBD47
:100E60008FB581608FBD1BBC1ABC19BC18BC109219
:100E700079001092780008958FB580688FBD8FB586
:100E80008F7B8FBD08958FB580628FBD8FB58F7EAC
:100E90008FBD08958FB588608FBD8FB58B7F8FBD57
:100EA00008959BBD8ABD089599BD88BD089590930E
:100EB0007900809378000895893049F480918B00FF
:100EC000826080938B0080918B008E7F0EC08A3071
:100ED00021F480918B00826003C080918B008D7F14
:100EE00080938B0080918B00816080938B001092A7
:100EF0008700109286001092850010928400109254
:100F00008300109282000895EBE8F0E08081806811
:100F1000808380818F7B80830895EBE8F0E080817F
:100F20008062808380818F7E80830895EBE8F0E08B
:100F300080818860808380818B7F80830895853065
:100F400019F40E943C070895843019F40E94430765
:100F50000895833019F40E944A070895823019F4E5
:100F60000E9484070895813019F40E948D07089526
:100F7000882311F40E949607089590938700809328
:100F8000860008959093850080938400089590933F
:100F90008300809382000895EF92FF921F93CF9376
:100FA000DF93182F7B018D31B0F08F3111F413E0F6
:100FB00014C08E3111F414E010C08D3109F49BC0BF
:100FC000853211F410E03DC0843211F411E039C0D3
:100FD000833219F48EC08330A0F180912C0286FDFB
:100FE0000BC00E94EB0678948AE00E942007809153
:100FF0002C02806480932C0280912C02C12FD0E0BF
:1010000090E0012E02C0959587950A94E2F780FD45
:101010004CC087B3FE01E35AFE4F9081892B87BBFA
:10102000812F0E949F0720912C0281E090E0012EE9
:1010300002C0880F991F0A94E2F7282B20932C02F4
:1010400034C080912C0287FD0BC00E940807789461
:101050008AE00E945C0780912C02806880932C02B9
:1010600080912C02C12FD0E090E0012E02C0959516
:1010700087950A94E2F780FD24C082B1FE01E35A0D
:10108000FE4F9081892B82B9812F0E949F0720916A
:101090002C0281E090E0012E02C0880F991F0A9473
:1010A000E2F7282B20932C020CC0153021F4C70145
:1010B0000E94510722C0143021F4C7010E94540736
:1010C0001CC0133021F4C7010E94570716C012300C
:1010D00021F4C7010E94BD0710C0113021F4C701DF
:1010E0000E94C2070AC0112341F4C7010E94C7072A
:1010F00004C012E0A6CF15E070CFDF91CF911F9111
:10110000FF90EF9008951F920F920FB60F920BB6BB
:101110000F9211242F933F934F935F936F937F937D
:101120008F939F93AF93BF93EF93FF93809133027D
:1011300090913402892B29F0E0913302F09134022E
:101140000995FF91EF91BF91AF919F918F917F9101
:101150006F915F914F913F912F910F900BBE0F9028
:101160000FBE0F901F9018951F920F920FB60F92FF
:101170000BB60F9211242F933F934F935F936F936E
:101180007F938F939F93AF93BF93EF93FF93809140
:101190003D0290913E02892B29F0E0913D02F091B1
:1011A0003E020995FF91EF91BF91AF919F918F9171
:1011B0007F916F915F914F913F912F910F900BBE57
:1011C0000F900FBE0F901F9018951F920F920FB6A1
:1011D0000F920BB60F9211242F933F934F935F936F
:1011E0006F937F938F939F93AF93BF93EF93FF93EF
:1011F0008091430290914402892B29F0E0914302AF
:10120000F09144020995FF91EF91BF91AF919F91A9
:101210008F917F916F915F914F913F912F910F909F
:101220000BBE0F900FBE0F901F9018951F920F923C
:101230000FB60F920BB60F9211242F933F934F933B
:101240005F936F937F938F939F93AF93BF93EF932E
:10125000FF9380912F0290913002892B29F0E09129
:101260002F02F09130020995FF91EF91BF91AF915C
:101270009F918F917F916F915F914F913F912F91AE
:101280000F900BBE0F900FBE0F901F9018951F92DE
:101290000F920FB60F920BB60F9211242F933F931C
:1012A0004F935F936F937F938F939F93AF93BF936E
:1012B000EF93FF938091350290913602892B29F0AC
:1012C000E0913502F09136020995FF91EF91BF91BF
:1012D000AF919F918F917F916F915F914F913F91CE
:1012E0002F910F900BBE0F900FBE0F901F9018956F
:1012F0001F920F920FB60F920BB60F9211242F93DD
:101300003F934F935F936F937F938F939F93AF938D
:10131000BF93EF93FF938091370290913802892B0E
:1013200029F0E0913702F09138020995FF91EF9191
:10133000BF91AF919F918F917F916F915F914F91ED
:101340003F912F910F900BBE0F900FBE0F901F90EB
:1013500018951F920F920FB60F920BB60F92112491
:101360002F933F934F935F936F937F938F939F93AD
:10137000AF93BF93EF93FF938091390290913A021C
:10138000892B29F0E0913902F0913A020995FF91F9
:10139000EF91BF91AF919F918F917F916F915F91ED
:1013A0004F913F912F910F900BBE0F900FBE0F905A
:1013B0001F9018951F920F920FB60F920BB60F92B7
:1013C00011242F933F934F935F936F937F938F934A
:1013D0009F93AF93BF93EF93FF9380913B029091C4
:1013E0003C02892B29F0E0913B02F0913C020995E7
:1013F000FF91EF91BF91AF919F918F917F916F91ED
:101400005F914F913F912F910F900BBE0F900FBEA8
:101410000F901F9018951F920F920FB60F920BB658
:101420000F9211242F933F934F935F936F937F936A
:101430008F939F93AF93BF93EF93FF9380913F025E
:1014400090914002892B29F0E0913F02F0914002F7
:101450000995FF91EF91BF91AF919F918F917F91EE
:101460006F915F914F913F912F910F900BBE0F9015
:101470000FBE0F901F9018951F920F920FB60F92EC
:101480000BB60F9211242F933F934F935F936F935B
:101490007F938F939F93AF93BF93EF93FF9380912D
:1014A000450290914602892B29F0E0914502F09186
:1014B00046020995FF91EF91BF91AF919F918F9156
:1014C0007F916F915F914F913F912F910F900BBE44
:1014D0000F900FBE0F901F9018951F920F920FB68E
:1014E0000F920BB60F9211242F933F934F935F935C
:1014F0006F937F938F939F93AF93BF93EF93FF93DC
:101500008091470290914802892B29F0E09147028F
:10151000F09148020995FF91EF91BF91AF919F9192
:101520008F917F916F915F914F913F912F910F908C
:101530000BBE0F900FBE0F901F9018951F920F9229
:101540000FB60F920BB60F9211242F933F934F9328
:101550005F936F937F938F939F93AF93BF93EF931B
:10156000FF938091490290914A02892B29F0E091E2
:101570004902F0914A020995FF91EF91BF91AF9115
:101580009F918F917F916F915F914F913F912F919B
:101590000F900BBE0F900FBE0F901F9018951F92CB
:1015A0000F920FB60F920BB60F9211242F933F9309
:1015B0004F935F936F937F938F939F93AF93BF935B
:1015C000EF93FF9380914B0290914C02892B29F06D
:1015D000E0914B02F0914C020995FF91EF91BF9180
:1015E000AF919F918F917F916F915F914F913F91BB
:1015F0002F910F900BBE0F900FBE0F901F9018955C
:1016000083E061E00E94870684E061E00E94870633
:1016100078940E9460050E942705FDCFDC01ED91C2
:10162000FC910190F081E02D099508950E940E0B28
:1016300008950F931F93CF93DF938C01EB0104C0A8
:101640002196C8010E94160B68816623C9F7DF91B5
:10165000CF911F910F9108952F923F924F925F92D9
:101660006F927F928F929F92AF92BF92CF92DF92B2
:10167000EF92FF920F931F93DF93CF93CDB7DEB717
:10168000A0970FB6F894DEBF0FBECDBF1C016A0154
:101690007B01411551056105710521F460E30E944C
:1016A000160B4FC0882499245401422E55246624D9
:1016B000772401E010E00C0F1D1F080D191DC70154
:1016C000B601A30192010E94D40DF8016083089431
:1016D000811C911CA11CB11CC701B601A301920180
:1016E0000E94D40DC901DA016C017D01C114D1043D
:1016F000E104F104F1F681E0E82EF12CEC0EFD1E80
:10170000E80CF91C3E010894611C711CD501C40150
:101710000197A109B1096C01C818D9080FC0F601D9
:10172000EE0DFF1D60816A3010F4605D01C0695CE0
:10173000C1010E94160B0894E108F1086E147F04A1
:1017400071F7A0960FB6F894DEBF0FBECDBFCF9154
:10175000DF911F910F91FF90EF90DF90CF90BF909E
:10176000AF909F908F907F906F905F904F903F9041
:101770002F900895EF92FF920F931F93CF93DF93D3
:10178000EC017A018B0177FF0BC06DE20E94160B12
:1017900010950095F094E094E11CF11C011D111DC1
:1017A000CE01B801A7012AE00E942C0BDF91CF9156
:1017B0001F910F91FF90EF900895AB01662757FDA1
:1017C0006095762F0E94BA0B08955058BB27AA2720
:1017D0000ED04DC13ED130F043D120F031F49F3FC7
:1017E00011F41EF433C10EF4E095E7FB29C1E92F93
:1017F0004FD180F3BA17620773078407950718F073
:1018000071F49EF567C10EF4E0950B2EBA2FA02D52
:101810000B01B90190010C01CA01A0011124FF279D
:10182000591B99F0593F50F4503E68F11A16F04098
:10183000A22F232F342F4427585FF3CF4695379597
:101840002795A795F0405395C9F77EF41F16BA0B5C
:10185000620B730B840BBAF09150A1F0FF0FBB1F0A
:10186000661F771F881FC2F70EC0BA0F621F731F53
:10187000841F48F4879577956795B795F7959E3FB0
:1018800008F0B3CF9395880F08F09927EE0F97953E
:10189000879508950CD0EBC0E3D040F0DAD030F05B
:1018A00021F45F3F19F0CCC0511115C1CFC0F0D069
:1018B00098F39923C9F35523B1F3951B550BBB2717
:1018C000AA2762177307840738F09F5F5F4F220FC4
:1018D000331F441FAA1FA9F333D00E2E3AF0E0E8BD
:1018E00030D091505040E695001CCAF729D0FE2F09
:1018F00027D0660F771F881FBB1F2617370748079B
:10190000AB07B0E809F0BB0B802DBF01FF27935850
:101910005F4F2AF09E3F510568F092C0DCC05F3FE8
:10192000ECF3983EDCF3869577956795B795F79538
:101930009F5FC9F7880F911D9695879597F9089530
:10194000E1E0660F771F881FBB1F621773078407CC
:10195000BA0720F0621B730B840BBA0BEE1F88F7DB
:10196000E095089504D06894B111B5C0089598D059
:1019700088F09F5790F0B92F9927B751A0F0D1F078
:10198000660F771F881F991F1AF0BA95C9F712C002
:10199000B13081F09FD0B1E008959CC0672F782FBF
:1019A0008827B85F39F0B93FCCF38695779567956E
:1019B000B395D9F73EF490958095709561957F4FDA
:1019C0008F4F9F4F0895E89409C097FB3EF4909580
:1019D0008095709561957F4F8F4F9F4F9923A9F008
:1019E000F92F96E9BB279395F69587957795679597
:1019F000B795F111F8CFFAF4BB0F11F460FF1BC0DB
:101A00006F5F7F4F8F4F9F4F16C0882311F096E96D
:101A100011C0772321F09EE8872F762F05C066231B
:101A200071F096E8862F70E060E02AF09A95660FD4
:101A3000771F881FDAF7880F9695879597F908958D
:101A400097F99F6780E870E060E008959FEF80EC71
:101A5000089500240A941616170618060906089514
:101A600000240A9412161306140605060895092E7A
:101A70000394000C11F4882352F0BB0F40F4BF2BE9
:101A800011F460FF04C06F5F7F4F8F4F9F4F089529
:101A900057FD9058440F551F59F05F3F71F047951F
:101AA000880F97FB991F61F09F3F79F08795089504
:101AB000121613061406551FF2CF4695F1DF08C023
:101AC000161617061806991FF1CF86957105610540
:101AD00008940895E894BB2766277727CB0197F9E8
:101AE00008950BD0C4CFB5DF28F0BADF18F09523E6
:101AF00009F0A6CFABCF1124EECFCADFA0F3959F9C
:101B0000D1F3950F50E0551F629FF001729FBB27E4
:101B1000F00DB11D639FAA27F00DB11DAA1F649F90
:101B20006627B00DA11D661F829F2227B00DA11D43
:101B3000621F739FB00DA11D621F839FA00D611DC9
:101B4000221F749F3327A00D611D231F849F600DEA
:101B5000211D822F762F6A2F11249F5750408AF023
:101B6000E1F088234AF0EE0FFF1FBB1F661F771FAF
:101B7000881F91505040A9F79E3F510570F060CFEB
:101B8000AACF5F3FECF3983EDCF386957795679597
:101B9000B795F795E7959F5FC1F7FE2B880F911DCD
:101BA0009695879597F90895A1E21A2EAA1BBB1B5B
:101BB000FD010DC0AA1FBB1FEE1FFF1FA217B30719
:101BC000E407F50720F0A21BB30BE40BF50B661F2F
:101BD000771F881F991F1A9469F7609570958095F3
:101BE00090959B01AC01BD01CF010895EE0FFF1F41
:0C1BF0000590F491E02D0994F894FFCFCB
:101BFC00476F2100FF320035003B003800230062A4
:101C0C00006500310034003A0037002200610064A6
:101C1C000030003300390036002100200063000141
:101C2C00FF18001900260027000500040001000021
:101C3C0000000000002A02000000008304D60238D5
:101C4C00041D0452040102040810204080201008D6
:041C5C0080402000A4
:00000001FF
