:100000000C9448000C947C000C947C000C947C00B4
:100010000C947C000C947C000C947C000C947C0070
:100020000C947C000C94590A0C9402090C94280A34
:100030000C9495090C94C6090C94D1080C9464098D
:100040000C94C1050C947C000C943B030C94CA03E3
:100050000C947C000C947C000C947C000C947C0030
:100060000C94F7090C941D0B0C948A0A0C94BB0A8F
:100070000C94EC0A0C9433090C940C030C94830339
:100080000C947C000C947C000C947C00F204190508
:1000900011241FBECFEFD0E1DEBFCDBF88E483BF08
:1000A00084E00E942F0712BE87B7816087BF7894D3
:1000B00011E0A0E0B1E0EAEBF8E100E00BBF02C024
:1000C00007900D92A236B107D9F712E0A2E6B1E08F
:1000D00001C01D92AB34B107E1F710E0C0E9D0E0F8
:1000E00004C02297FE010E94570CCC38D107C9F7F3
:1000F0000E944E0B0C945B0C0C9400000F931F930A
:10010000CF93DF93EB018A01CC0FDD1F57FD0CC0AD
:10011000FE01E15DFE4F808161E00E94A506C95CA1
:10012000DE4F8881B8010EC0FE01E15DFE4F808187
:1001300060E00E94A506C95CDE4F66277727601B3A
:10014000710B88810E941A08DF91CF911F910F9146
:1001500008951F93CF93DF93C0E0D0E0FE01E15DEF
:10016000FE4F1081812F61E00E945C06812F61E0CB
:100170000E94A506FE01E95CFE4F808160E070E010
:100180000E941A082296C830D10541F7DF91CF911D
:100190001F910895FC0110828AE090E0938382838E
:1001A0000895E0910201E7FD15C0FF27E7FDF095F6
:1001B000EE0FFF1FEE59FE4F0190F081E02D81817F
:1001C00060E00E94A50606C02F5F81919191892B66
:1001D00069F00EC0209102012F5FE22FFF27E7FD9B
:1001E000F0952150EE0FFF1FEE59FE4F273064F3BC
:1001F00020930201E0910201FF27E7FDF095EE0F49
:10020000FF1FEE59FE4F0190F081E02D309761F411
:100210008FEF8093020124EF31E080917301909180
:100220007401281B390B12C0818161E00E94A50670
:10023000E0910201FF27E7FDF095EE0FFF1FEE5959
:10024000FE4F0190F081E02D2281338183B5820F32
:1002500083BD8091730190917401820F931F9093DD
:10026000740180937301845F914020F010927401B7
:100270001092730108950E94470787B78F7787BF51
:1002800085E00E94420789E061ED70E00E9463070B
:1002900083B58C5083BD87B7806887BF1092740187
:1002A000109273018FEF809302010895CF93DF9333
:1002B000EC0180917201893010F080E03DC06983CB
:1002C000862F61E00E945C06E881F0E0EE0FFF1FE0
:1002D000EE59FE4F80819181C817D90761F1409195
:1002E0007201442341F4E2E6F1E01192119281E0BF
:1002F000E237F807D1F7E2E6F1E020E030E0808174
:100300009181892B61F4F901EE0FFF1FEE59FE4F29
:10031000D183C08328834F5F4093720106C02F5F53
:100320003F4F32962830310551F78091720181306C
:1003300011F40E943B0181E0DF91CF910895CF93AA
:10034000DF93EC018A8160E00E94A5068D8160E068
:100350000E94D5068D8160E00E94F7068B8161E0E6
:100360000E94A5068C8161E00E94A50600000000A5
:1003700010C08C8160E00E94A50600000000000013
:1003800000008C8161E00E94A506000000000000D2
:1003900000008D810E94EC0687FDEBCF8C8160E030
:1003A0000E94A506DF91CF910895FF920F931F93AE
:1003B0008C01F62E0E949F01F801828161E00E946B
:1003C000A506F801838160E00E94A506F8018481FA
:1003D00061E00E94A506F801858161E00E94D506D2
:1003E000F80185816F2D0E94F706000000000000D3
:1003F0000000F801848160E00E94A506F801858173
:1004000060E00E94D506F80185816FEF0E94F70633
:100410001F910F91FF900895EF92FF920F931F93FA
:10042000CF93DF937C01042F6115710551F0EB012F
:1004300010E005C0C70169910E94D5011F5F101728
:10044000C8F3DF91CF911F910F91FF90EF90089526
:10045000DF93CF930F92CDB7DEB76983BE016F5F95
:100460007F4F41E00E940C020F90CF91DF910895E1
:10047000FF920F931F938C01F62E0E949F01F801AB
:10048000828160E00E94A506F801838160E00E94FD
:10049000A506F801848161E00E94A506F801858126
:1004A00061E00E94D506F80185816F2D0E94F70654
:1004B0000000000000000000F801848160E00E945C
:1004C000A506F801858160E00E94D506F8018581C6
:1004D0006FEF0E94F7061F910F91FF900895423031
:1004E00031F0433031F0413029F4605C03C06C5E80
:1004F00001C06C5A60680E943802089562E00E9450
:100500003802089561E00E94380208950F931F9306
:100510008C01FC01828160E00E94A506F8018381C4
:1005200060E00E94A506F801848160E00E94A506B3
:10053000F801828161E00E945C06F801838161E03C
:100540000E945C06F801848161E00E945C06F8016B
:10055000858160E00E94D506F80185816FEF0E94D9
:10056000F7061F910F9108950F931F938C010E941E
:100570008602C80168E30E943802C80161E00E9457
:100580003802C80166E00E943802C8016CE00E948F
:100590003802C80162E00E943802C80160E80E9487
:1005A00038021F910F9108950F93FC0183E491E0AD
:1005B000918380836283438324830583CF010E94D8
:1005C000B4020F910895FC0124813581C901089579
:1005D000DC01FC0182819381809714F080E0089512
:1005E000FD01828193810196938382838481958129
:1005F000E80FF91F60870196FD01958384832D9193
:100600003C9111978217930714F481E00895FD013E
:100610001582148281E008951F920F920FB60F92F7
:100620000BB60F9211242F933F934F935F936F93C9
:100630007F938F939F93AF93BF93EF93FF93E0913B
:100640000B02F0910C02608183EC91E00E94E802C1
:10065000FF91EF91BF91AF919F918F917F916F919A
:100660005F914F913F912F910F900BBE0F900FBE56
:100670000F901F9018951F920F920FB60F920BB606
:100680000F9211242F933F934F935F936F937F9318
:100690008F939F93AF93BF93EF93FF93E091BF012D
:1006A000F091C001608187E791E00E94E802FF912C
:1006B000EF91BF91AF919F918F917F916F915F91DA
:1006C0004F913F912F910F900BBE0F900FBE0F9047
:1006D0001F901895DC01FC0182819381019793831F
:1006E000828386819781E80FF91F40850196FD017D
:1006F000978386832D913C918217930714F017827C
:100700001682842F08951F920F920FB60F920BB688
:100710000F9211240F931F932F933F934F935F9347
:100720006F937F938F939F93AF93BF93EF93FF93B9
:100730008091ED019091EE011816190654F4009184
:100740000B0210910C028BEE91E00E946A03F801FB
:1007500080838091ED019091EE01892B31F4E0913D
:100760000902F0910A0288E98083FF91EF91BF911D
:10077000AF919F918F917F916F915F914F913F9139
:100780002F911F910F910F900BBE0F900FBE0F90E6
:100790001F9018951F920F920FB60F920BB60F92E3
:1007A00011240F931F932F933F934F935F936F9356
:1007B0007F938F939F93AF93BF93EF93FF9380911A
:1007C000A1019091A2011816190654F40091BF01DD
:1007D0001091C0018FE991E00E946A03F8018083C3
:1007E0008091A1019091A201892B31F4E091BD018A
:1007F000F091BE0188E98083FF91EF91BF91AF91A5
:100800009F918F917F916F915F914F913F912F9128
:100810001F910F910F900BBE0F900FBE0F901F9066
:100820001895DC01FC018281938101979383828377
:1008300086819781E80FF91F40850196FD01978316
:1008400086832D913C918217930714F017821682AC
:10085000842F0895FC0184819581892B19F42FEF51
:100860003FEF06C0CF0102960E941104282F30E00E
:10087000C9010895CF93DF93EC01EE81FF81E80F6A
:10088000F91F8085DF91CF910895FC0184819581C6
:10089000892B19F42FEF3FEF06C0CF0102960E947B
:1008A0003A04282F30E0C9010895FC011382128216
:1008B00082819381978386839583848308950296AA
:1008C0000E9455040895FC0180E290E091838083AA
:1008D000CF010E9455040895DC01FC0182819381BF
:1008E000409714F080E00895FD0182819381019684
:1008F0009383828384819581E80FF91F6087019635
:10090000FD01958384832D913C9111978217930764
:1009100014F481E00895FD011582148281E00895A8
:10092000CF93DF93EC018CA59DA54097E4F7F89455
:10093000CE018A960E946C04C85BDF4FE881F98182
:100940008081806280837894DF91CF910895FC014B
:100950001382128282819381978386839583848315
:100960000895FC0180E190E091838083CF010E9493
:10097000A70408956F927F928F929F92AF92BF9239
:10098000CF92DF92EF92FF920F931F936C015B0166
:100990004A013901FC0189E491E081939193CF01EF
:1009A0000E946304C6018A960E94B10482E490E02A
:1009B000C80ED91EF601A192B192819291926192D4
:1009C000719201931193F182E0821F910F91FF9038
:1009D000EF90DF90CF90BF90AF909F908F907F90DF
:1009E0006F900895EF92FF920F931F9385E791E028
:1009F00060E970E049E250E02BE230E00AE210E00A
:100A0000FCE2EF2EF12C0E94BA0481EC91E068E93F
:100A100070E049E950E02BE930E00AE910E0ECE948
:100A2000EE2EF12C0E94BA041F910F91FF90EF90CF
:100A300008950F938DE092E06AE14BE12CE102E032
:100A40000E94D40283E192E00E94A90085E192E035
:100A50000E94CA0089E192E00E94CA008DE192E002
:100A60000E94CA000F9108958F929F92AF92BF92F9
:100A7000CF92DF92EF92FF920F931F9356C086E0C2
:100A80000E940B075C0183E00E940B074C0182E08F
:100A90000E940B076C0184E00E940B077C0181E03F
:100AA0000E940B078C018DE092E00E9482028DE093
:100AB00092E00E947E028DE092E0B8010E942B0C31
:100AC0008DE092E060E071E00E94670B8DE092E0C3
:100AD000B7010E942B0C8DE092E060E041E00E94A3
:100AE0006F028DE092E0B6010E942B0C8DE092E047
:100AF00060E071E00E94670B8DE092E0B4010E941B
:100B00002B0C62E370E080E090E00E94360683E107
:100B100092E060E070E0A5010E947E0083E192E037
:100B200063E070E0A5010E947E0081E30E948C06D4
:100B3000882309F0A4CF1F910F91FF90EF90DF90D1
:100B4000CF90BF90AF909F908F90089580E060E02D
:100B50000E94D50681E060E00E94D50685E192E022
:100B600063E270E00E94560189E192E06FE170E07B
:100B70000E9456018DE192E062E270E00E9456010F
:100B800008951F920F920FB60F9211242F933F9347
:100B90008F939F93AF93BF938091250290912602EC
:100BA000A0912702B0912802309129020196A11D3F
:100BB000B11D232F2D5F2D3720F02D570196A11D3C
:100BC000B11D209329028093250290932602A093C1
:100BD0002702B09328028091210290912202A091D5
:100BE0002302B09124020196A11DB11D8093210220
:100BF00090932202A0932302B0932402BF91AF915D
:100C00009F918F913F912F910F900FBE0F901F904A
:100C100018956FB7F89420912102309122024091EB
:100C200023025091240282B790E0A0E0B0E006B623
:100C300000FE09C08F3F9105A105B10521F02F5F8E
:100C40003F4F4F4F5F4F6FBF542F432F322F2227FD
:100C5000280F391F4A1F5B1F82E0220F331F441FDA
:100C6000551F8A95D1F7B901CA010895EF92FF92F5
:100C70000F931F93CF93DF937B018C010E94090692
:100C8000EB010EC00E9409066C1B7D0B685E734071
:100C9000C8F30894E108F10801091109C851DC4FB3
:100CA000E114F1040105110569F7DF91CF911F915E
:100CB0000F91FF90EF900895E82FE695E695E69561
:100CC000A82FB0E0613099F42FB7F894F0E0EE0F60
:100CD000FF1FEF5EFE4F0190F081E02D9081A77025
:100CE000B070AD5ABE4F8C91982B908313C02FB724
:100CF000F894F0E0EE0FFF1FEF5EFE4F0190F081E1
:100D0000E02D9081A770B070AD5ABE4F8C91809548
:100D1000892380832FBF0895A82FE82FE695E695B5
:100D2000E695F0E0EE0FFF1FE15EFE4F0190F081CF
:100D3000E02DE081B0E0A770B070AD5ABE4F8C914D
:100D4000E82309F0E1E08E2F0895E82FE695E69577
:100D5000E695A82FB0E0613099F42FB7F894F0E051
:100D6000EE0FFF1FED5FFE4F0190F081E02D9081AF
:100D7000A770B070AD5ABE4F8C91982B908313C062
:100D80002FB7F894F0E0EE0FFF1FED5FFE4F0190DC
:100D9000F081E02D9081A770B070AD5ABE4F8C915C
:100DA0008095892380832FBF0895E82FF0E061307C
:100DB00051F4EE0FFF1FEF5EFE4F0190F081E02D2A
:100DC0008FEF80830895EE0FFF1FEF5EFE4F0190BF
:100DD000F081E02D10820895E82FF0E0EE0FFF1F64
:100DE000E15EFE4F0190F081E02D80810895E82FB3
:100DF000F0E0EE0FFF1FED5FFE4F0190F081E02D60
:100E000060830895109261001092620080E487B9B7
:100E100087EE86B908951F93182F80912D01813098
:100E200021F40E94020710922D0180912E011817C3
:100E300021F4349A349BFECF0DC010932E0187B15C
:100E40001770807E812B87B9349A349BFECF349AF9
:100E5000349BFECF24B135B1C9011F91089593B7DA
:100E6000987F982B93BF08959EB5987F982B9EBD31
:100E7000089583E00E9434071DBC1CBC87B78460C2
:100E800087BF089595B5987F982B95BD089582E00A
:100E90000E94420714BC87B7806487BF0895EAE8C0
:100EA000F0E09081987F982B9083089583E00E94D2
:100EB0004F071092890010928800EDE7F0E08081E2
:100EC000846080830895803140F4E82FF0E0EE0FD5
:100ED000FF1FE55DFD4F718360830895893031F414
:100EE0008FB582608FBD8FB58E7F0AC08A3019F4AE
:100EF0008FB5826002C08FB58D7F8FBD8FB5816049
:100F00008FBD1BBC1ABC19BC18BC10927900109282
:100F1000780008958FB580688FBD8FB58F7B8FBDAA
:100F200008958FB580628FBD8FB58F7E8FBD089578
:100F30008FB588608FBD8FB58B7F8FBD08959BBDAA
:100F40008ABD089599BD88BD0895909379008093D6
:100F500078000895893049F480918B0082608093F5
:100F60008B0080918B008E7F0EC08A3021F480919F
:100F70008B00826003C080918B008D7F80938B00FB
:100F800080918B00816080938B001092870010927B
:100F900086001092850010928400109283001092B7
:100FA00082000895EBE8F0E0808180688083808192
:100FB0008F7B80830895EBE8F0E0808180628083FE
:100FC00080818F7E80830895EBE8F0E080818860E7
:100FD000808380818B7F80830895853019F40E94FF
:100FE0008A070895843019F40E9491070895833088
:100FF00019F40E9498070895823019F40E94D207CC
:101000000895813019F40E94DB070895882311F4B4
:101010000E94E407089590938700809386000895C6
:10102000909385008093840008959093830080932B
:1010300082000895EF92FF921F93CF93DF93182FB2
:101040007B018D31B0F08F3111F413E014C08E317B
:1010500011F414E010C08D3109F49BC0853211F4F5
:1010600010E03DC0843211F411E039C0833219F42C
:101070008EC08330A0F180912A0286FD0BC00E94B1
:10108000390778948AE00E946E0780912A02806472
:1010900080932A0280912A02C12FD0E090E0012E95
:1010A00002C0959587950A94E2F780FD4CC087B3FE
:1010B000FE01E55AFE4F9081892B87BB812F0E944C
:1010C000ED0720912A0281E090E0012E02C0880FF6
:1010D000991F0A94E2F7282B20932A0234C08091AA
:1010E0002A0287FD0BC00E94560778948AE00E946E
:1010F000AA0780912A02806880932A0280912A029E
:10110000C12FD0E090E0012E02C0959587950A94FA
:10111000E2F780FD24C082B1FE01E55AFE4F9081C6
:10112000892B82B9812F0E94ED0720912A0281E04C
:1011300090E0012E02C0880F991F0A94E2F7282B35
:1011400020932A020CC0153021F4C7010E949F078A
:1011500022C0143021F4C7010E94A2071CC0133022
:1011600021F4C7010E94A50716C0123021F4C7015F
:101170000E940B0810C0113021F4C7010E94100812
:101180000AC0112341F4C7010E94150804C012E0EF
:10119000A6CF15E070CFDF91CF911F91FF90EF9018
:1011A00008951F920F920FB60F920BB60F92112453
:1011B0002F933F934F935F936F937F938F939F935F
:1011C000AF93BF93EF93FF938091310290913202DE
:1011D000892B29F0E0913102F09132020995FF91BB
:1011E000EF91BF91AF919F918F917F916F915F919F
:1011F0004F913F912F910F900BBE0F900FBE0F900C
:101200001F9018951F920F920FB60F920BB60F9268
:1012100011242F933F934F935F936F937F938F93FB
:101220009F93AF93BF93EF93FF9380913B02909175
:101230003C02892B29F0E0913B02F0913C02099598
:10124000FF91EF91BF91AF919F918F917F916F919E
:101250005F914F913F912F910F900BBE0F900FBE5A
:101260000F901F9018951F920F920FB60F920BB60A
:101270000F9211242F933F934F935F936F937F931C
:101280008F939F93AF93BF93EF93FF93809141020E
:1012900090914202892B29F0E0914102F0914202A3
:1012A0000995FF91EF91BF91AF919F918F917F91A0
:1012B0006F915F914F913F912F910F900BBE0F90C7
:1012C0000FBE0F901F9018951F920F920FB60F929E
:1012D0000BB60F9211242F933F934F935F936F930D
:1012E0007F938F939F93AF93BF93EF93FF938091DF
:1012F0002D0290912E02892B29F0E0912D02F09180
:101300002E020995FF91EF91BF91AF919F918F911F
:101310007F916F915F914F913F912F910F900BBEF5
:101320000F900FBE0F901F9018951F920F920FB63F
:101330000F920BB60F9211242F933F934F935F930D
:101340006F937F938F939F93AF93BF93EF93FF938D
:101350008091330290913402892B29F0E09133027D
:10136000F09134020995FF91EF91BF91AF919F9158
:101370008F917F916F915F914F913F912F910F903E
:101380000BBE0F900FBE0F901F9018951F920F92DB
:101390000FB60F920BB60F9211242F933F934F93DA
:1013A0005F936F937F938F939F93AF93BF93EF93CD
:1013B000FF938091350290913602892B29F0E091BC
:1013C0003502F09136020995FF91EF91BF91AF91EF
:1013D0009F918F917F916F915F914F913F912F914D
:1013E0000F900BBE0F900FBE0F901F9018951F927D
:1013F0000F920FB60F920BB60F9211242F933F93BB
:101400004F935F936F937F938F939F93AF93BF930C
:10141000EF93FF938091370290913802892B29F046
:10142000E0913702F09138020995FF91EF91BF9159
:10143000AF919F918F917F916F915F914F913F916C
:101440002F910F900BBE0F900FBE0F901F9018950D
:101450001F920F920FB60F920BB60F9211242F937B
:101460003F934F935F936F937F938F939F93AF932C
:10147000BF93EF93FF938091390290913A02892BA9
:1014800029F0E0913902F0913A020995FF91EF912C
:10149000BF91AF919F918F917F916F915F914F918C
:1014A0003F912F910F900BBE0F900FBE0F901F908A
:1014B00018951F920F920FB60F920BB60F92112430
:1014C0002F933F934F935F936F937F938F939F934C
:1014D000AF93BF93EF93FF9380913D0290913E02B3
:1014E000892B29F0E0913D02F0913E020995FF9190
:1014F000EF91BF91AF919F918F917F916F915F918C
:101500004F913F912F910F900BBE0F900FBE0F90F8
:101510001F9018951F920F920FB60F920BB60F9255
:1015200011242F933F934F935F936F937F938F93E8
:101530009F93AF93BF93EF93FF938091430290915A
:101540004402892B29F0E0914302F091440209956D
:10155000FF91EF91BF91AF919F918F917F916F918B
:101560005F914F913F912F910F900BBE0F900FBE47
:101570000F901F9018951F920F920FB60F920BB6F7
:101580000F9211242F933F934F935F936F937F9309
:101590008F939F93AF93BF93EF93FF9380914502F7
:1015A00090914602892B29F0E0914502F091460284
:1015B0000995FF91EF91BF91AF919F918F917F918D
:1015C0006F915F914F913F912F910F900BBE0F90B4
:1015D0000FBE0F901F9018951F920F920FB60F928B
:1015E0000BB60F9211242F933F934F935F936F93FA
:1015F0007F938F939F93AF93BF93EF93FF938091CC
:10160000470290914802892B29F0E0914702F0911E
:1016100048020995FF91EF91BF91AF919F918F91F2
:101620007F916F915F914F913F912F910F900BBEE2
:101630000F900FBE0F901F9018951F920F920FB62C
:101640000F920BB60F9211242F933F934F935F93FA
:101650006F937F938F939F93AF93BF93EF93FF937A
:101660008091490290914A02892B29F0E091490228
:10167000F0914A020995FF91EF91BF91AF919F912F
:101680008F917F916F915F914F913F912F910F902B
:101690000BBE0F900FBE0F901F90189583E061E076
:1016A0000E94D50684E061E00E94D50678940E94ED
:1016B000A6050E943405FDCFDC01ED91FC9101905F
:1016C000F081E02D099508950E945C0B08950F9319
:1016D0001F93CF93DF938C01EB0104C02196C801C7
:1016E0000E94640B68816623C9F7DF91CF911F9137
:1016F0000F9108952F923F924F925F926F927F9237
:101700008F929F92AF92BF92CF92DF92EF92FF9211
:101710000F931F93DF93CF93CDB7DEB7A0970FB68C
:10172000F894DEBF0FBECDBF1C016A017B014115DD
:1017300051056105710521F460E30E94640B4FC0FF
:10174000882499245401422E55246624772401E0EC
:1017500010E00C0F1D1F080D191DC701B601A301D4
:1017600092010E94330CF80160830894811C911C43
:10177000A11CB11CC701B601A30192010E94330C48
:10178000C901DA016C017D01C114D104E104F10445
:10179000F1F681E0E82EF12CEC0EFD1EE80CF91CB0
:1017A0003E010894611C711CD501C4010197A10977
:1017B000B1096C01C818D9080FC0F601EE0DFF1D64
:1017C00060816A3010F4605D01C0695CC1010E94F3
:1017D000640B0894E108F1086E147F0471F7A09679
:1017E0000FB6F894DEBF0FBECDBFCF91DF911F9132
:1017F0000F91FF90EF90DF90CF90BF90AF909F90B0
:101800008F907F906F905F904F903F902F900895B2
:10181000EF92FF920F931F93CF93DF93EC017A0126
:101820008B0177FF0BC06DE20E94640B1095009551
:10183000F094E094E11CF11C011D111DCE01B801D2
:10184000A7012AE00E947A0BDF91CF911F910F919F
:10185000FF90EF900895AB01662757FD6095762FB6
:101860000E94080C0895A1E21A2EAA1BBB1BFD01C1
:101870000DC0AA1FBB1FEE1FFF1FA217B307E4076F
:10188000F50720F0A21BB30BE40BF50B661F771FC7
:10189000881F991F1A9469F76095709580959095A7
:1018A0009B01AC01BD01CF010895EE0FFF1F059014
:0A18B000F491E02D0994F894FFCFA5
:1018BA002000FF320035003B00380023006200653B
:1018CA0000310034003A0037002200610064003021
:1018DA000033003900360021002000630001FF18A0
:1018EA00001900260027000500040001000000007E
:1018FA000000002802000000009004E30245042AC8
:10190A00045F04010204081020408020100880406F
:02191A002000AB
:00000001FF
