:100000000C9448000C947C000C947C000C947C00B4
:100010000C947C000C947C000C947C000C947C0070
:100020000C947C000C94E10A0C948A090C94B00A9C
:100030000C941D0A0C944E0A0C9459090C94EC096A
:100040000C9462060C947C000C943B030C94CA0341
:100050000C947C000C947C000C947C000C947C0030
:100060000C947F0A0C94A50B0C94120B0C94430B6C
:100070000C94740B0C94BB090C940C030C94830328
:100080000C947C000C947C000C947C00F2043B05E6
:1000900011241FBECFEFD0E1DEBFCDBF88E483BF08
:1000A00084E00E94B70712BE87B7816087BF78944B
:1000B00011E0A0E0B1E0E8E1FAE100E00BBF02C02E
:1000C00007900D92A437B107D9F712E0A4E7B1E089
:1000D00001C01D92AF35B107E1F710E0C0E9D0E0F3
:1000E00004C02297FE010E94060DCC38D107C9F743
:1000F0000E94D60B0C940A0D0C9400000F931F93D2
:10010000CF93DF93EB018A01CC0FDD1F57FD0CC0AD
:10011000FE01EF5BFE4F808161E00E942D07C75B0F
:10012000DE4F8881B8010EC0FE01EF5BFE4F80817B
:1001300060E00E942D07C75BDE4F66277727601BB4
:10014000710B88810E94A208DF91CF911F910F91BE
:1001500008951F93CF93DF93C0E0D0E0FE01EF5BE3
:10016000FE4F1081812F61E00E94FD06812F61E02A
:100170000E942D07FE01E75BFE4F808160E070E08A
:100180000E94A2082296C830D10541F7DF91CF9195
:100190001F910895FC0110828AE090E0938382838E
:1001A0000895E0911201E7FD15C0FF27E7FDF095E6
:1001B000EE0FFF1FEC58FE4F0190F081E02D818182
:1001C00060E00E942D0706C02F5F81919191892BDD
:1001D00069F00EC0209112012F5FE22FFF27E7FD8B
:1001E000F0952150EE0FFF1FEC58FE4F273064F3BF
:1001F00020931201E0911201FF27E7FDF095EE0F29
:10020000FF1FEC58FE4F0190F081E02D309761F414
:100210008FEF8093120124EF31E08091850190915E
:100220008601281B390B12C0818161E00E942D07D5
:10023000E0911201FF27E7FDF095EE0FFF1FEC584C
:10024000FE4F0190F081E02D2281338183B5820F32
:1002500083BD8091850190918601820F931F9093B9
:10026000860180938501845F914020F01092860181
:100270001092850108950E94CF0787B78F7787BFB7
:1002800085E00E94CA0789E061ED70E00E94EB07FB
:1002900083B58C5083BD87B7806887BF1092860175
:1002A000109285018FEF809312010895CF93DF9311
:1002B000EC0180918401893010F080E03DC06983B9
:1002C000862F61E00E94FD06E881F0E0EE0FFF1F3F
:1002D000EC58FE4F80819181C817D90761F1409198
:1002E0008401442341F4E4E7F1E01192119281E0AA
:1002F000E438F807D1F7E4E7F1E020E030E080816E
:100300009181892B61F4F901EE0FFF1FEC58FE4F2C
:10031000D183C08328834F5F4093840106C02F5F41
:100320003F4F32962830310551F78091840181305A
:1003300011F40E943B0181E0DF91CF910895CF93AA
:10034000DF93EC018A8160E00E942D078D8160E0DF
:100350000E945D078D8160E00E947F078B8161E0D4
:100360000E942D078C8161E00E942D070000000093
:1003700010C08C8160E00E942D070000000000008A
:1003800000008C8161E00E942D0700000000000049
:1003900000008D810E94740787FDEBCF8C8160E0A7
:1003A0000E942D07DF91CF910895FF920F931F9325
:1003B0008C01F62E0E949F01F801828161E00E946B
:1003C0002D07F801838160E00E942D07F8018481E8
:1003D00061E00E942D07F801858161E00E945D07C0
:1003E000F80185816F2D0E947F070000000000004A
:1003F0000000F801848160E00E942D07F8018581EA
:1004000060E00E945D07F80185816FEF0E947F0721
:100410001F910F91FF900895EF92FF920F931F93FA
:10042000CF93DF937C01042F6115710551F0EB012F
:1004300010E005C0C70169910E94D5011F5F101728
:10044000C8F3DF91CF911F910F91FF90EF90089526
:10045000DF93CF930F92CDB7DEB76983BE016F5F95
:100460007F4F41E00E940C020F90CF91DF910895E1
:10047000FF920F931F938C01F62E0E949F01F801AB
:10048000828160E00E942D07F801838160E00E9474
:100490002D07F801848161E00E942D07F801858114
:1004A00061E00E945D07F80185816F2D0E947F0742
:1004B0000000000000000000F801848160E00E945C
:1004C0002D07F801858160E00E945D07F8018581B4
:1004D0006FEF0E947F071F910F91FF9008954230A8
:1004E00031F0433031F0413029F4605C03C06C5E80
:1004F00001C06C5A60680E943802089562E00E9450
:100500003802089561E00E94380208950F931F9306
:100510008C01FC01828160E00E942D07F80183813B
:1005200060E00E942D07F801848160E00E942D07A1
:10053000F801828161E00E94FD06F801838161E09B
:100540000E94FD06F801848161E00E94FD06F80129
:10055000858160E00E945D07F80185816FEF0E9450
:100560007F071F910F9108950F931F938C010E9495
:100570008602C80168E30E943802C80161E00E9457
:100580003802C80166E00E943802C8016CE00E948F
:100590003802C80162E00E943802C80160E80E9487
:1005A00038021F910F9108950F93FC0185E591E0AA
:1005B000918380836283438324830583CF010E94D8
:1005C000B4020F910895FC0124813581C901089579
:1005D000DC01FC0182819381809714F080E0089512
:1005E000FD01828193810196938382838481958129
:1005F000E80FF91F60870196FD01958384832D9193
:100600003C9111978217930714F481E00895FD013E
:100610001582148281E008951F920F920FB60F92F7
:100620000BB60F9211242F933F934F935F936F93C9
:100630007F938F939F93AF93BF93EF93FF93E0913B
:100640001D02F0911E02608185ED91E00E94E8029A
:10065000FF91EF91BF91AF919F918F917F916F919A
:100660005F914F913F912F910F900BBE0F900FBE56
:100670000F901F9018951F920F920FB60F920BB606
:100680000F9211242F933F934F935F936F937F9318
:100690008F939F93AF93BF93EF93FF93E091D1011B
:1006A000F091D201608189E891E00E94E802FF9117
:1006B000EF91BF91AF919F918F917F916F915F91DA
:1006C0004F913F912F910F900BBE0F900FBE0F9047
:1006D0001F901895DC01FC0182819381019793831F
:1006E000828386819781E80FF91F40850196FD017D
:1006F000978386832D913C918217930714F017827C
:100700001682842F08951F920F920FB60F920BB688
:100710000F9211240F931F932F933F934F935F9347
:100720006F937F938F939F93AF93BF93EF93FF93B9
:100730008091FF01909100021816190654F400915F
:100740001D0210911E028DEF91E00E946A03F801D4
:1007500080838091FF0190910002892B31F4E09118
:100760001B02F0911C0288E98083FF91EF91BF91F9
:10077000AF919F918F917F916F915F914F913F9139
:100780002F911F910F910F900BBE0F900FBE0F90E6
:100790001F9018951F920F920FB60F920BB60F92E3
:1007A00011240F931F932F933F934F935F936F9356
:1007B0007F938F939F93AF93BF93EF93FF9380911A
:1007C000B3019091B4011816190654F40091D101A7
:1007D0001091D20181EB91E00E946A03F8018083BD
:1007E0008091B3019091B401892B31F4E091CF0154
:1007F000F091D00188E98083FF91EF91BF91AF9193
:100800009F918F917F916F915F914F913F912F9128
:100810001F910F910F900BBE0F900FBE0F901F9066
:100820001895DC01FC018281938101979383828377
:1008300086819781E80FF91F40850196FD01978316
:1008400086832D913C918217930714F017821682AC
:10085000842F0895FC0184819581892B19F42FEF51
:100860003FEF06C0CF0102960E941104282F30E00E
:10087000C9010895CF93DF93EC01EE81FF81E80F6A
:10088000F91F8085DF91CF910895FC0184819581C6
:10089000892B19F42FEF3FEF06C0CF0102960E947B
:1008A0003A04282F30E0C9010895FC011382128216
:1008B00082819381978386839583848308950296AA
:1008C0000E9455040895FC0180E290E091838083AA
:1008D000CF010E9455040895DC01FC0182819381BF
:1008E000409714F080E00895FD0182819381019684
:1008F0009383828384819581E80FF91F6087019635
:10090000FD01958384832D913C9111978217930764
:1009100014F481E00895FD011582148281E00895A8
:10092000CF93DF93EC018CA59DA54097E4F7F89455
:10093000CE018A960E946C04C85BDF4FE881F98182
:100940008081806280837894DF91CF910895FC014B
:100950001382128282819381978386839583848315
:100960000895FC0180E190E091838083CF010E9493
:10097000A70408956F927F928F929F92AF92BF9239
:10098000CF92DF92EF92FF920F931F936C015B0166
:100990004A013901FC018BE591E081939193CF01EC
:1009A0000E946304C6018A960E94B10482E490E02A
:1009B000C80ED91EF601A192B192819291926192D4
:1009C000719201931193F182E0821F910F91FF9038
:1009D000EF90DF90CF90BF90AF909F908F907F90DF
:1009E0006F900895EF92FF920F931F9387E891E025
:1009F00060E970E049E250E02BE230E00AE210E00A
:100A0000FCE2EF2EF12C0E94BA0483ED91E068E93C
:100A100070E049E950E02BE930E00AE910E0ECE948
:100A2000EE2EF12C0E94BA041F910F91FF90EF90CF
:100A300008950F931F93FC01861B970B609133025F
:100A400070913402640F751FAC01049FC001059FB3
:100A5000900D149F900D11240E94BB0C2E9FC0017D
:100A60002F9F900D3E9F900D1124680F791FCB0191
:100A70001F910F9108950F938FE192E06AE14BE18E
:100A80002CE102E00E94D40285E292E00E94A900DB
:100A900087E292E00E94CA008BE292E00E94CA00C4
:100AA0008FE292E00E94CA000F9108954F925F92E8
:100AB0006F927F928F929F92AF92BF92CF92DF926E
:100AC000EF92FF920F931F93CF93DF933C014B0163
:100AD0005A01E90186E00E9493072C0180E090E032
:100AE00040E050E0F501EC1BFD0BB30168197909FA
:100AF00023E3A216B1042CF4C333D10514F49B01F3
:100B000001C09F01820F931F4F5F5F4F4436510515
:100B100079F764E670E00E94BB0CD62EC72E862FB4
:100B2000972F60E070E041E050E0920100E010E0BB
:100B30000E9419057C010091130110911401A80174
:100B4000480F591F85E292E060E070E00E947E004D
:100B50000E191F0985E292E063E070E0A8010E948F
:100B60007E008FE192E00E9482028FE192E00E947B
:100B70007E028FE192E06D2D7C2D0E94B30C8FE1FF
:100B800092E060E071E00E94EF0B8FE192E062E0A2
:100B900071E00E94EF0B8FE192E0B4010E94B30C70
:100BA0008FE192E060E071E00E94EF0B8FE192E054
:100BB00066E071E00E94EF0B8FE192E0B3010E94CA
:100BC000B30C8FE192E060E041E00E946F028FE1A0
:100BD00092E0B2010E94B30C8FE192E060E071E01C
:100BE0000E94EF0B8FE192E06AE071E00E94EF0B50
:100BF0008FE192E0BE010E94B30C8FE192E060E0D1
:100C000071E00E94EF0B8FE192E06EE071E00E94D4
:100C1000EF0B8FE192E0B5010E94B30C65E070E04C
:100C200080E090E00E94D706DF91CF911F910F9155
:100C3000FF90EF90DF90CF90BF90AF909F908F90FC
:100C40007F906F905F904F900895CF92DF92EF92D8
:100C5000FF920F931F9384E00E9493076C0183E03F
:100C60000E9493077C0181E00E9493078C0182E03F
:100C70000E9493079C01C601B801A7010E94560576
:100C80001F910F91FF90EF90DF90CF90089580E03B
:100C900060E00E945D0781E060E00E945D0787E2FE
:100CA00092E063E270E00E9456018BE292E06FE115
:100CB00070E00E9456018FE292E062E270E00E94D2
:100CC000560108951F920F920FB60F9211242F9381
:100CD0003F938F939F93AF93BF93809139029091ED
:100CE0003A02A0913B02B0913C0230913D02019644
:100CF000A11DB11D232F2D5F2D3720F02D570196FB
:100D0000A11DB11D20933D028093390290933A02B8
:100D1000A0933B02B0933C02809135029091360241
:100D2000A0913702B09138020196A11DB11D8093A8
:100D3000350290933602A0933702B0933802BF91E8
:100D4000AF919F918F913F912F910F900FBE0F9078
:100D50001F9018956FB7F8942091350230913602A4
:100D6000409137025091380282B790E0A0E0B0E0A5
:100D700006B600FE09C08F3F9105A105B10521F01F
:100D80002F5F3F4F4F4F5F4F6FBF542F432F322F77
:100D90002227280F391F4A1F5B1F82E0220F331FB3
:100DA000441F551F8A95D1F7B901CA010895EF92E2
:100DB000FF920F931F93CF93DF937B018C010E94CF
:100DC000AA06EB010EC00E94AA066C1B7D0B685E92
:100DD0007340C8F30894E108F10801091109C851EA
:100DE000DC4FE114F1040105110569F7DF91CF91A2
:100DF0001F910F91FF90EF900895E82FE695E695EB
:100E0000E695A82FB0E0613099F42FB7F894F0E0A0
:100E1000EE0FFF1FED5DFE4F0190F081E02D908100
:100E2000A770B070AB59BE4F8C91982B908313C0B4
:100E30002FB7F894F0E0EE0FFF1FED5DFE4F01902D
:100E4000F081E02D9081A770B070AB59BE4F8C91AE
:100E50008095892380832FBF0895E82FE695E69536
:100E6000E695A82FB0E0613099F42FB7F894F0E040
:100E7000EE0FFF1FEB5EFE4F0190F081E02D9081A1
:100E8000A770B070AB59BE4F8C91982B908313C054
:100E90002FB7F894F0E0EE0FFF1FEB5EFE4F0190CE
:100EA000F081E02D9081A770B070AB59BE4F8C914E
:100EB0008095892380832FBF0895E82FF0E061306B
:100EC00051F4EE0FFF1FED5DFE4F0190F081E02D1C
:100ED0008FEF80830895EE0FFF1FED5DFE4F0190B1
:100EE000F081E02D10820895E82FF0E0EE0FFF1F53
:100EF000EF5CFE4F0190F081E02D80810895E82F96
:100F0000F0E0EE0FFF1FEB5EFE4F0190F081E02D51
:100F100060830895109261001092620080E487B9A6
:100F200087EE86B908951F93182F80913F01813075
:100F300021F40E948A0710923F0180914001181706
:100F400021F4349A349BFECF0DC01093400187B139
:100F50001770807E812B87B9349A349BFECF349AE8
:100F6000349BFECF24B135B1C9011F91089593B7C9
:100F7000987F982B93BF08959EB5987F982B9EBD20
:100F8000089583E00E94BC071DBC1CBC87B7846029
:100F900087BF089595B5987F982B95BD089582E0F9
:100FA0000E94CA0714BC87B7806487BF0895EAE827
:100FB000F0E09081987F982B9083089583E00E94C1
:100FC000D7071092890010928800EDE7F0E0808149
:100FD000846080830895803140F4E82FF0E0EE0FC4
:100FE000FF1FE15CFD4F718360830895893031F408
:100FF0008FB582608FBD8FB58E7F0AC08A3019F49D
:101000008FB5826002C08FB58D7F8FBD8FB5816037
:101010008FBD1BBC1ABC19BC18BC10927900109271
:10102000780008958FB580688FBD8FB58F7B8FBD99
:1010300008958FB580628FBD8FB58F7E8FBD089567
:101040008FB588608FBD8FB58B7F8FBD08959BBD99
:101050008ABD089599BD88BD0895909379008093C5
:1010600078000895893049F480918B0082608093E4
:101070008B0080918B008E7F0EC08A3021F480918E
:101080008B00826003C080918B008D7F80938B00EA
:1010900080918B00816080938B001092870010926A
:1010A00086001092850010928400109283001092A6
:1010B00082000895EBE8F0E0808180688083808181
:1010C0008F7B80830895EBE8F0E0808180628083ED
:1010D00080818F7E80830895EBE8F0E080818860D6
:1010E000808380818B7F80830895853019F40E94EE
:1010F00012080895843019F40E9419080895833065
:1011000019F40E9420080895823019F40E945A08A8
:101110000895813019F40E9463080895882311F41A
:101120000E946C080895909387008093860008952C
:10113000909385008093840008959093830080931A
:1011400082000895EF92FF921F93CF93DF93182FA1
:101150007B018D31B0F08F3111F413E014C08E316A
:1011600011F414E010C08D3109F49BC0853211F4E4
:1011700010E03DC0843211F411E039C0833219F41B
:101180008EC08330A0F180913E0286FD0BC00E948C
:10119000C10778948AE00E94F60780913E0280643D
:1011A00080933E0280913E02C12FD0E090E0012E5C
:1011B00002C0959587950A94E2F780FD4CC087B3ED
:1011C000FE01E359FE4F9081892B87BB812F0E943E
:1011D000750820913E0281E090E0012E02C0880F48
:1011E000991F0A94E2F7282B20933E0234C0809185
:1011F0003E0287FD0BC00E94DE0778948AE00E94C1
:10120000320880913E02806880933E0280913E02C7
:10121000C12FD0E090E0012E02C0959587950A94E9
:10122000E2F780FD24C082B1FE01E359FE4F9081B8
:10123000892B82B9812F0E94750820913E0281E09E
:1012400090E0012E02C0880F991F0A94E2F7282B24
:1012500020933E020CC0153021F4C7010E942708DC
:1012600022C0143021F4C7010E942A081CC0133088
:1012700021F4C7010E942D0816C0123021F4C701C5
:101280000E94930810C0113021F4C7010E949808F1
:101290000AC0112341F4C7010E949D0804C012E056
:1012A000A6CF15E070CFDF91CF911F91FF90EF9007
:1012B00008951F920F920FB60F920BB60F92112442
:1012C0002F933F934F935F936F937F938F939F934E
:1012D000AF93BF93EF93FF938091450290914602A5
:1012E000892B29F0E0914502F09146020995FF9182
:1012F000EF91BF91AF919F918F917F916F915F918E
:101300004F913F912F910F900BBE0F900FBE0F90FA
:101310001F9018951F920F920FB60F920BB60F9257
:1013200011242F933F934F935F936F937F938F93EA
:101330009F93AF93BF93EF93FF9380914F02909150
:101340005002892B29F0E0914F02F091500209954B
:10135000FF91EF91BF91AF919F918F917F916F918D
:101360005F914F913F912F910F900BBE0F900FBE49
:101370000F901F9018951F920F920FB60F920BB6F9
:101380000F9211242F933F934F935F936F937F930B
:101390008F939F93AF93BF93EF93FF9380915502E9
:1013A00090915602892B29F0E0915502F091560256
:1013B0000995FF91EF91BF91AF919F918F917F918F
:1013C0006F915F914F913F912F910F900BBE0F90B6
:1013D0000FBE0F901F9018951F920F920FB60F928D
:1013E0000BB60F9211242F933F934F935F936F93FC
:1013F0007F938F939F93AF93BF93EF93FF938091CE
:10140000410290914202892B29F0E0914102F09132
:1014100042020995FF91EF91BF91AF919F918F91FA
:101420007F916F915F914F913F912F910F900BBEE4
:101430000F900FBE0F901F9018951F920F920FB62E
:101440000F920BB60F9211242F933F934F935F93FC
:101450006F937F938F939F93AF93BF93EF93FF937C
:101460008091470290914802892B29F0E091470230
:10147000F09148020995FF91EF91BF91AF919F9133
:101480008F917F916F915F914F913F912F910F902D
:101490000BBE0F900FBE0F901F9018951F920F92CA
:1014A0000FB60F920BB60F9211242F933F934F93C9
:1014B0005F936F937F938F939F93AF93BF93EF93BC
:1014C000FF938091490290914A02892B29F0E09183
:1014D0004902F0914A020995FF91EF91BF91AF91B6
:1014E0009F918F917F916F915F914F913F912F913C
:1014F0000F900BBE0F900FBE0F901F9018951F926C
:101500000F920FB60F920BB60F9211242F933F93A9
:101510004F935F936F937F938F939F93AF93BF93FB
:10152000EF93FF9380914B0290914C02892B29F00D
:10153000E0914B02F0914C020995FF91EF91BF9120
:10154000AF919F918F917F916F915F914F913F915B
:101550002F910F900BBE0F900FBE0F901F901895FC
:101560001F920F920FB60F920BB60F9211242F936A
:101570003F934F935F936F937F938F939F93AF931B
:10158000BF93EF93FF9380914D0290914E02892B70
:1015900029F0E0914D02F0914E020995FF91EF91F3
:1015A000BF91AF919F918F917F916F915F914F917B
:1015B0003F912F910F900BBE0F900FBE0F901F9079
:1015C00018951F920F920FB60F920BB60F9211241F
:1015D0002F933F934F935F936F937F938F939F933B
:1015E000AF93BF93EF93FF9380915102909152027A
:1015F000892B29F0E0915102F09152020995FF9157
:10160000EF91BF91AF919F918F917F916F915F917A
:101610004F913F912F910F900BBE0F900FBE0F90E7
:101620001F9018951F920F920FB60F920BB60F9244
:1016300011242F933F934F935F936F937F938F93D7
:101640009F93AF93BF93EF93FF9380915702909135
:101650005802892B29F0E0915702F0915802099520
:10166000FF91EF91BF91AF919F918F917F916F917A
:101670005F914F913F912F910F900BBE0F900FBE36
:101680000F901F9018951F920F920FB60F920BB6E6
:101690000F9211242F933F934F935F936F937F93F8
:1016A0008F939F93AF93BF93EF93FF9380915902D2
:1016B00090915A02892B29F0E0915902F0915A0237
:1016C0000995FF91EF91BF91AF919F918F917F917C
:1016D0006F915F914F913F912F910F900BBE0F90A3
:1016E0000FBE0F901F9018951F920F920FB60F927A
:1016F0000BB60F9211242F933F934F935F936F93E9
:101700007F938F939F93AF93BF93EF93FF938091BA
:101710005B0290915C02892B29F0E0915B02F091D1
:101720005C020995FF91EF91BF91AF919F918F91CD
:101730007F916F915F914F913F912F910F900BBED1
:101740000F900FBE0F901F9018951F920F920FB61B
:101750000F920BB60F9211242F933F934F935F93E9
:101760006F937F938F939F93AF93BF93EF93FF9369
:1017700080915D0290915E02892B29F0E0915D02DB
:10178000F0915E020995FF91EF91BF91AF919F910A
:101790008F917F916F915F914F913F912F910F901A
:1017A0000BBE0F900FBE0F901F90189583E061E065
:1017B0000E945D0784E061E00E945D0778940E94CA
:1017C00047060E942506FDCFDC01ED91FC910190BA
:1017D000F081E02D099508950E94E40B08950F9380
:1017E0001F93CF93DF938C01EB0104C02196C801B6
:1017F0000E94EC0B68816623C9F7DF91CF911F919E
:101800000F9108952F923F924F925F926F927F9225
:101810008F929F92AF92BF92CF92DF92EF92FF9200
:101820000F931F93DF93CF93CDB7DEB7A0970FB67B
:10183000F894DEBF0FBECDBF1C016A017B014115CC
:1018400051056105710521F460E30E94EC0B4FC066
:10185000882499245401422E55246624772401E0DB
:1018600010E00C0F1D1F080D191DC701B601A301C3
:1018700092010E94CE0CF80160830894811C911C97
:10188000A11CB11CC701B601A30192010E94CE0C9C
:10189000C901DA016C017D01C114D104E104F10434
:1018A000F1F681E0E82EF12CEC0EFD1EE80CF91C9F
:1018B0003E010894611C711CD501C4010197A10966
:1018C000B1096C01C818D9080FC0F601EE0DFF1D53
:1018D00060816A3010F4605D01C0695CC1010E94E2
:1018E000EC0B0894E108F1086E147F0471F7A096E0
:1018F0000FB6F894DEBF0FBECDBFCF91DF911F9121
:101900000F91FF90EF90DF90CF90BF90AF909F909E
:101910008F907F906F905F904F903F902F900895A1
:10192000EF92FF920F931F93CF93DF93EC017A0115
:101930008B0177FF0BC06DE20E94EC0B10950095B8
:10194000F094E094E11CF11C011D111DCE01B801C1
:10195000A7012AE00E94020CDF91CF911F910F9105
:10196000FF90EF900895AB01662757FD6095762FA5
:101970000E94900C089597FB092E07260AD077FD48
:1019800004D02ED006D000201AF4709561957F4FB8
:101990000895F6F7909581959F4F0895A1E21A2E2C
:1019A000AA1BBB1BFD010DC0AA1FBB1FEE1FFF1F03
:1019B000A217B307E407F50720F0A21BB30BE40B53
:1019C000F50B661F771F881F991F1A9469F760959A
:1019D0007095809590959B01AC01BD01CF01089554
:1019E000AA1BBB1B51E107C0AA1FBB1FA617B70745
:1019F00010F0A61BB70B881F991F5A95A9F7809561
:101A00009095BC01CD010895EE0FFF1F0590F49154
:081A1000E02D0994F894FFCFCA
:101A1800200052423A004C423A0052533A004C538A
:101A28003A00FFF401320035003B00380023006221
:101A3800006500310034003A00370022006100647C
:101A48000030003300390036002100200063000117
:101A5800FF180019002600270005000400010000F7
:101A680000000000002802000000009004E3024586
:101A7800042A045F04010204081020408020100892
:041A8800804020007A
:00000001FF
