:100000000C9448000C947C000C947C000C947C00B4
:100010000C947C000C947C000C947C000C947C0070
:100020000C947C000C94300D0C94D90B0C94FF0CA8
:100030000C946C0C0C949D0C0C94A80B0C943B0C25
:100040000C948A080C947C000C9468030C94F703BD
:100050000C947C000C947C000C947C000C947C0030
:100060000C94CE0C0C94F40D0C94610D0C94920D28
:100070000C94C30D0C940A0C0C9439030C94B0032B
:100080000C947C000C947C000C947C001F054605AD
:1000900011241FBECFEFD0E1DEBFCDBF88E483BF08
:1000A00084E00E94060A12BE87B7816087BF7894F9
:1000B00011E0A0E0B1E0E6E9F2E200E00BBF02C02F
:1000C00007900D92A83CB107D9F712E0A8ECB1E077
:1000D00001C01D92A13CB107E1F710E0C0E9D0E0FA
:1000E00004C02297FE010E944511CC38D107C9F700
:1000F0000E94250E0C9449110C9400000F931F933D
:10010000CF93DF93EB018A01CC0FDD1F57FD0CC0AD
:10011000FE01EA56FE4F808161E00E947C09C256D2
:10012000DE4F8881B8010EC0FE01EA56FE4F808185
:1001300060E00E947C09C256DE4F66277727601B6D
:10014000710B88810E94F10ADF91CF911F910F916D
:1001500008951F93CF93DF93C0E0D0E0FE01EA56ED
:10016000FE4F1081812F61E00E943309812F61E0F1
:100170000E947C09FE01E256FE4F808160E070E043
:100180000E94F10A2296C830D10541F7DF91CF9144
:100190001F910895FC0110828AE090E0938382838E
:1001A0000895CF93DF93EC01882777FD8095982FF2
:1001B0000E940E1020E030E044E353E40E94730FED
:1001C00020E030E040EF51E40E94BE1020E030E03B
:1001D00040E251E40E940B0F0E94E00FCB016A3015
:1001E000710510F48AE090E08932910510F088E200
:1001F00090E09B838A83DF91CF910895E0915F0126
:10020000E7FD15C0FF27E7FDF095EE0FFF1FE85350
:10021000FE4F0190F081E02D818160E00E947C0919
:1002200006C02F5F81919191892B69F00EC02091BA
:100230005F012F5FE22FFF27E7FDF0952150EE0FC2
:10024000FF1FE853FE4F273064F320935F01E091D6
:100250005F01FF27E7FDF095EE0FFF1FE853FE4F0C
:100260000190F081E02D309761F48FEF80935F0172
:1002700024EF31E08091D9019091DA01281B390BEC
:1002800012C0818161E00E947C09E0915F01FF273B
:10029000E7FDF095EE0FFF1FE853FE4F0190F08150
:1002A000E02D2281338183B5820F83BD8091D901F6
:1002B0009091DA01820F931F9093DA018093D90114
:1002C000845F914020F01092DA011092D9010895D4
:1002D0000E941E0A87B78F7787BF85E00E94190AA0
:1002E00089E06EEF70E00E943A0A83B58C5083BDBE
:1002F00087B7806887BF1092DA011092D9018FEF1B
:1003000080935F010895CF93DF93EC018091D80132
:10031000893010F080E03DC06983862F61E00E9443
:100320003309E881F0E0EE0FFF1FE853FE4F8081B4
:100330009181C817D90761F14091D801442341F454
:10034000E8ECF1E01192119281E0E83DF807D1F775
:10035000E8ECF1E020E030E080819181892B61F4CC
:10036000F901EE0FFF1FE853FE4FD183C0832883AE
:100370004F5F4093D80106C02F5F3F4F3296283021
:10038000310551F78091D801813011F40E94680144
:1003900081E0DF91CF910895CF93DF93EC018A81C3
:1003A00060E00E947C098D8160E00E94AC098D8133
:1003B00060E00E94CE098B8161E00E947C098C8103
:1003C00061E00E947C090000000010C08C8160E0A8
:1003D0000E947C0900000000000000008C8161E0A8
:1003E0000E947C0900000000000000008D810E9436
:1003F000C30987FDEBCF8C8160E00E947C09DF910F
:10040000CF910895FF920F931F938C01F62E0E94B7
:10041000CC01F801828161E00E947C09F8018381AE
:1004200060E00E947C09F801848161E00E947C09FF
:10043000F801858161E00E94AC09F80185816F2D8A
:100440000E94CE090000000000000000F801848135
:1004500060E00E947C09F801858160E00E94AC099F
:10046000F80185816FEF0E94CE091F910F91FF90D7
:100470000895EF92FF920F931F93CF93DF937C0128
:10048000042F6115710551F0EB0110E005C0C701A3
:1004900069910E9402021F5F1017C8F3DF91CF918C
:1004A0001F910F91FF90EF900895DF93CF930F92DC
:1004B000CDB7DEB76983BE016F5F7F4F41E00E9419
:1004C00039020F90CF91DF910895FF920F931F9300
:1004D0008C01F62E0E94CC01F801828160E00E941E
:1004E0007C09F801838160E00E947C09F801848125
:1004F00061E00E947C09F801858161E00E94AC09FD
:10050000F80185816F2D0E94CE09000000000000D7
:100510000000F801848160E00E947C09F801858177
:1005200060E00E94AC09F80185816FEF0E94CE095E
:100530001F910F91FF900895423031F0433031F018
:10054000413029F4605C03C06C5E01C06C5A606885
:100550000E946502089562E00E946502089561E0CC
:100560000E94650208950F931F938C01FC01828104
:1005700060E00E947C09F801838160E00E947C09B0
:10058000F801848160E00E947C09F801828161E0C9
:100590000E943309F801838161E00E943309F80168
:1005A000848161E00E943309F801858160E00E9446
:1005B000AC09F80185816FEF0E94CE091F910F9160
:1005C00008950F931F938C010E94B302C80168E342
:1005D0000E946502C80161E00E946502C80166E0F0
:1005E0000E946502C8016CE00E946502C80162E0D9
:1005F0000E946502C80160E80E9465021F910F9188
:1006000008950F93FC018AEA91E0918380836283CD
:10061000438324830583CF010E94E1020F91089553
:10062000FC0124813581C9010895DC01FC0182812E
:100630009381809714F080E00895FD018281938179
:1006400001969383828384819581E80FF91F6087E7
:100650000196FD01958384832D913C91119782171A
:10066000930714F481E00895FD011582148281E05E
:1006700008951F920F920FB60F920BB60F9211248E
:100680002F933F934F935F936F937F938F939F939A
:10069000AF93BF93EF93FF93E0917102F0917202D9
:1006A000608189E292E00E941503FF91EF91BF9172
:1006B000AF919F918F917F916F915F914F913F91FA
:1006C0002F910F900BBE0F900FBE0F901F9018959B
:1006D0001F920F920FB60F920BB60F9211242F9309
:1006E0003F934F935F936F937F938F939F93AF93BA
:1006F000BF93EF93FF93E0912502F0912602608172
:100700008DED91E00E941503FF91EF91BF91AF91A4
:100710009F918F917F916F915F914F913F912F9119
:100720000F900BBE0F900FBE0F901F901895DC011D
:10073000FC018281938101979383828386819781D3
:10074000E80FF91F40850196FD01978386832D915F
:100750003C918217930714F017821682842F089514
:100760001F920F920FB60F920BB60F9211240F9398
:100770001F932F933F934F935F936F937F938F9329
:100780009F93AF93BF93EF93FF9380915302909108
:1007900054021816190654F4009171021091720255
:1007A00081E592E00E949703F801808380915302D3
:1007B00090915402892B31F4E0916F02F091700214
:1007C00088E98083FF91EF91BF91AF919F918F91C5
:1007D0007F916F915F914F913F912F911F910F9159
:1007E0000F900BBE0F900FBE0F901F9018951F9289
:1007F0000F920FB60F920BB60F9211240F931F9307
:100800002F933F934F935F936F937F938F939F9318
:10081000AF93BF93EF93FF938091070290910802EB
:100820001816190654F4009125021091260285E04D
:1008300092E00E949703F8018083809107029091D3
:100840000802892B31F4E0912302F091240288E917
:100850008083FF91EF91BF91AF919F918F917F9195
:100860006F915F914F913F912F911F910F910F9039
:100870000BBE0F900FBE0F901F901895DC01FC016E
:100880008281938101979383828386819781E80F88
:10089000F91F40850196FD01978386832D913C9138
:1008A0008217930714F017821682842F0895FC0193
:1008B00084819581892B19F42FEF3FEF06C0CF017A
:1008C00002960E943E04282F30E0C9010895CF937C
:1008D000DF93EC01EE81FF81E80FF91F8085DF9146
:1008E000CF910895FC0184819581892B19F42FEF14
:1008F0003FEF06C0CF0102960E946704282F30E028
:10090000C9010895FC011382128282819381978329
:10091000868395838483089502960E9482040895B5
:10092000FC0180E290E091838083CF010E948204E9
:100930000895DC01FC0182819381409714F080E0EE
:100940000895FD018281938101969383828384813E
:100950009581E80FF91F60870196FD0195838483D7
:100960002D913C9111978217930714F481E008951B
:10097000FD011582148281E00895CF93DF93EC018D
:100980008CA59DA54097E4F7F894CE018A960E9425
:100990009904C85BDF4FE881F981808180628083A0
:1009A0007894DF91CF910895FC01138212828281A5
:1009B000938197838683958384830895FC0180E1E6
:1009C00090E091838083CF010E94D40408956F92B8
:1009D0007F928F929F92AF92BF92CF92DF92EF92CF
:1009E000FF920F931F936C015B014A013901FC01D7
:1009F00080EB91E081939193CF010E949004C60116
:100A00008A960E94DE0482E490E0C80ED91EF601A8
:100A1000A192B192819291926192719201931193FC
:100A2000F182E0821F910F91FF90EF90DF90CF90C5
:100A3000BF90AF909F908F907F906F900895EF92AE
:100A4000FF920F931F938BED91E060E970E049E214
:100A500050E02BE230E00AE210E0FCE2EF2EF12C55
:100A60000E94E70487E292E068E970E049E950E01B
:100A70002BE930E00AE910E0ECE9EE2EF12C0E94BF
:100A8000E7041F910F91FF90EF9008950F9383E774
:100A900092E06AE14BE12CE102E00E94010389E768
:100AA00092E00E94A9008BE792E00E94CA008FE7C3
:100AB00092E00E94CA0083E892E00E94CA000F916F
:100AC00008956F927F928F929F92AF92BF92CF9232
:100AD000DF92EF92FF920F931F93CF93DF9385E006
:100AE0000E94E2095C0180E00E94E2096C0186E05C
:100AF0000E94E2094C0187E00E94E2093C0140911A
:100B0000890250918A0220918702309188022A1529
:100B10003B0564F42C153D050CF052C110928A027D
:100B2000109289024DC181E090E01BC0A216B3066D
:100B3000E4F42C153D050CF048C18FEF9FEF909326
:100B40008A028093890241C11416150634F485E0A7
:100B500090E090938A028093890257FF06C08BEF42
:100B60009FEF90938A0280938902C0918902D0916D
:100B70008A02C417D50701F150938C0240938B026F
:100B80008091600190916101A0916201B091630137
:100B900080938D0290938E02A0938F02B093900267
:100BA00080E090E0A0E8BFE3809360019093610152
:100BB000A0936201B093630180918B0290918C02AB
:100BC0009E01281B390B629EB001639E700D729EC0
:100BD000700D1124882777FD8095982F0E940E10A4
:100BE0007B018C0160918D0270918E0280918F0249
:100BF00090919002209160013091610140916201D9
:100C0000509163010E940B0F9B01AC01C801B70119
:100C10000E94730F0E94DB0F8C9E90018D9E300D01
:100C20009C9E300D1124620F731F20919102309110
:100C30009202AB01420F531FE901C61BD70B34E0F0
:100C40004130530714F04FEF53E084E0C130D80730
:100C500014F0CFEFD3E089E792E060E070E00E940B
:100C60007E0089E792E063E070E0AE010E947E00C2
:100C700080919302909194028C52914009F078C037
:100C800083E792E00E94AF0283E792E00E94AB020A
:100C900083E792E060E071E00E943E0E609189027D
:100CA00070918A0283E792E00E94020F83E792E04C
:100CB00063E071E00E943E0E83E792E065E071E040
:100CC0000E943E0E83E792E0B6010E94020F83E786
:100CD00092E063E071E00E943E0E83E792E068E0FC
:100CE00071E00E943E0E83E792E0B5010E94020F80
:100CF00083E792E063E071E00E943E0E83E792E0BA
:100D000060E041E00E949C0283E792E06BE071E0CA
:100D10000E943E0E83E792E0B4010E94020F83E737
:100D200092E063E071E00E943E0E83E792E06FE0A4
:100D300071E00E943E0E83E792E0B3010E94020F31
:100D400083E792E063E071E00E943E0E60919102C1
:100D50007091920283E792E00E94020F65E070E0DA
:100D600080E090E00E940D0910929402109293028C
:100D700080919302909194020196909394028093B3
:100D80009302609160017091610180916201909184
:100D9000630120E030E040E85FE30E940B0F6093C6
:100DA000600170936101809362019093630180916F
:100DB00095020E946309882369F40E94F9060AC01B
:100DC000C216D3060CF4AFCED0CEC216D3060CF4A6
:100DD000BBCECBCEDF91CF911F910F91FF90EF90C3
:100DE000DF90CF90BF90AF909F908F907F906F904B
:100DF0000895AF92BF92CF92DF92EF92FF920F933E
:100E00001F93CF93DF9383E792E00E94AF0283E7C3
:100E100092E00E94AB0283E792E063E171E00E94FE
:100E20003E0E83E792E063E071E00E943E0E65E0D3
:100E300070E080E090E00E940D090E94D2085B0102
:100E40006C0112C0409164015091650189E792E004
:100E500060E070E00E947E0089E792E063E070E06D
:100E600040E050E00E947E000E94D2080E940C10D8
:100E70007B018C01C601B5010E940E1020E030E01C
:100E80004AEF53E40E940B0F9B01AC01C801B7016C
:100E90000E946F0F87FDD6CF85E00E94E209EC012A
:100EA00080E00E94E2095C0186E00E94E2096C0198
:100EB000C817D9070CF04CC0A816B9060CF04BC0E7
:100EC000409164015091650189E792E060E070E033
:100ED0000E947E0089E792E063E070E040E050E02D
:100EE0000E947E0083E792E00E94AF0283E792E0D7
:100EF0000E94AB0283E792E06BE171E00E943E0E3C
:100F000083E792E060E041E00E949C0283E792E088
:100F1000B5010E94020F83E792E063E071E00E9456
:100F20003E0E83E792E0BE010E94020F83E792E04B
:100F300063E071E00E943E0E83E792E0B6010E94FA
:100F4000020F65E070E080E090E00E940D0903C0B0
:100F50008C179D0724F0CA14DB040CF09DCF0E946F
:100F6000610583E792E00E94AF0283E792E00E946E
:100F7000AB0283E792E068E271E00E943E0E83E7F5
:100F800092E060E041E00E949C0283E792E0B501BC
:100F90000E94020F83E792E063E071E00E943E0E40
:100FA00083E792E0BE010E94020FDF91CF911F9173
:100FB0000F91FF90EF90DF90CF90BF90AF9008958A
:100FC0000E946105089580E060E00E94AC0981E024
:100FD00060E00E94AC098BE792E063E270E00E945F
:100FE00083018FE792E06FE170E00E94830183E864
:100FF00092E062E270E00E9483016091660170916C
:1010000067018BE792E00E94D100609168017091C6
:10101000690183E892E00E94D10083E792E00E9498
:10102000AF0283E792E00E94AB0283E792E06DE2B9
:1010300071E00E943E0E68EB7BE080E090E02DC006
:1010400086E00E94E209909388028093870283E7FA
:1010500092E00E94AF0283E792E00E94AB0283E736
:1010600092E064E371E00E943E0E6091870270910D
:10107000880283E792E00E94020F83E792E060E03B
:1010800041E00E949C0283E792E06CE371E00E94E1
:101090003E0E65E070E080E090E00E940D0981E383
:1010A0000E946309882361F62FC086E00E94E2094E
:1010B000909392028093910283E792E00E94AF02A4
:1010C00083E792E00E94AB0283E792E067E471E07D
:1010D0000E943E0E609191027091920283E792E02D
:1010E0000E94020F83E792E060E041E00E949C02D0
:1010F00083E792E063E571E00E943E0E65E070E0F8
:1011000080E090E00E940D0982E30E946309882339
:1011100061F608951F920F920FB60F9211242F932C
:101120003F938F939F93AF93BF9380919B02909136
:101130009C02A0919D02B0919E0230919F02019667
:10114000A11DB11D232F2D5F2D3720F02D570196A6
:10115000A11DB11D20939F0280939B0290939C023E
:10116000A0939D02B0939E02809197029091980265
:10117000A0919902B0919A020196A11DB11D809390
:10118000970290939802A0939902B0939A02BF910C
:10119000AF919F918F913F912F910F900FBE0F9024
:1011A0001F9018958FB7F89420919B0230919C0264
:1011B00040919D0250919E028FBFB901CA010895CE
:1011C0006FB7F8942091970230919802409199025C
:1011D00050919A0282B790E0A0E0B0E006B600FE1F
:1011E00009C08F3F9105A105B10521F02F5F3F4F49
:1011F0004F4F5F4F6FBF542F432F322F2227280F9F
:10120000391F4A1F5B1F82E0220F331F441F551FE7
:101210008A95D1F7B901CA010895EF92FF920F9311
:101220001F93CF93DF937B018C010E94E008EB01B9
:101230000EC00E94E0086C1B7D0B685E7340C8F313
:101240000894E108F10801091109C851DC4FE114C3
:10125000F1040105110569F7DF91CF911F910F91FD
:10126000FF90EF900895E82FE695E695E695A82F74
:10127000B0E0613099F42FB7F894F0E0EE0FFF1F63
:10128000E858FE4F0190F081E02D9081A770B0707A
:10129000A654BE4F8C91982B908313C02FB7F8940F
:1012A000F0E0EE0FFF1FE858FE4F0190F081E02DB7
:1012B0009081A770B070A654BE4F8C918095892301
:1012C00080832FBF0895A82FE82FE695E695E69531
:1012D000F0E0EE0FFF1FEA57FE4F0190F081E02D86
:1012E000E081B0E0A770B070A654BE4F8C91E823A7
:1012F00009F0E1E08E2F0895E82FE695E695E69552
:10130000A82FB0E0613099F42FB7F894F0E0EE0F19
:10131000FF1FE659FE4F0190F081E02D9081A770EC
:10132000B070A654BE4F8C91982B908313C02FB7EA
:10133000F894F0E0EE0FFF1FE659FE4F0190F081A8
:10134000E02D9081A770B070A654BE4F8C9180950F
:10135000892380832FBF0895E82FF0E0613051F496
:10136000EE0FFF1FE858FE4F0190F081E02D8FEF48
:1013700080830895EE0FFF1FE858FE4F0190F08123
:10138000E02D10820895E82FF0E0EE0FFF1FEA57DE
:10139000FE4F0190F081E02D80810895E82FF0E06C
:1013A000EE0FFF1FE659FE4F0190F081E02D6083A4
:1013B0000895109261001092620080E487B987EE70
:1013C00086B908951F93182F80919401813021F4DC
:1013D0000E94D9091092940180919501181721F467
:1013E000349A349BFECF0DC01093950187B11770CE
:1013F000807E812B87B9349A349BFECF349A349BFC
:10140000FECF24B135B1C9011F91089593B7987FDC
:10141000982B93BF08959EB5987F982B9EBD0895F5
:1014200083E00E940B0A1DBC1CBC87B7846087BF89
:10143000089595B5987F982B95BD089582E00E94F8
:10144000190A14BC87B7806487BF0895EAE8F0E002
:101450009081987F982B9083089583E00E94260ABC
:101460001092890010928800EDE7F0E0808184609E
:1014700080830895803140F4E82FF0E0EE0FFF1FE5
:10148000EF55FD4F718360830895893031F48FB536
:1014900082608FBD8FB58E7F0AC08A3019F48FB5F8
:1014A000826002C08FB58D7F8FBD8FB581608FBD8B
:1014B0001BBC1ABC19BC18BC1092790010927800A1
:1014C00008958FB580688FBD8FB58F7B8FBD0895D0
:1014D0008FB580628FBD8FB58F7E8FBD08958FB51C
:1014E00088608FBD8FB58B7F8FBD08959BBD8ABDF2
:1014F000089599BD88BD08959093790080937800F0
:101500000895893049F480918B00826080938B002C
:1015100080918B008E7F0EC08A3021F480918B00E9
:10152000826003C080918B008D7F80938B008091BF
:101530008B00816080938B00109287001092860050
:101540001092850010928400109283001092820005
:101550000895EBE8F0E080818068808380818F7B54
:1015600080830895EBE8F0E0808180628083808151
:101570008F7E80830895EBE8F0E08081886080832F
:1015800080818B7F80830895853019F40E94610AE1
:101590000895843019F40E94680A0895833019F47C
:1015A0000E946F0A0895823019F40E94A90A0895D2
:1015B000813019F40E94B20A0895882311F40E9420
:1015C000BB0A0895909387008093860008959093B6
:1015D0008500809384000895909383008093820017
:1015E0000895EF92FF921F93CF93DF93182F7B0103
:1015F0008D31B0F08F3111F413E014C08E3111F43D
:1016000014E010C08D3109F49BC0853211F410E054
:101610003DC0843211F411E039C0833219F48EC018
:101620008330A0F18091A00286FD0BC00E94100AB9
:1016300078948AE00E94450A8091A0028064809399
:10164000A0028091A002C12FD0E090E0012E02C044
:10165000959587950A94E2F780FD4CC087B3FE010B
:10166000EE53FE4F9081892B87BB812F0E94C40AC5
:101670002091A00281E090E0012E02C0880F991F06
:101680000A94E2F7282B2093A00234C08091A00294
:1016900087FD0BC00E942D0A78948AE00E94810A7F
:1016A0008091A00280688093A0028091A002C12F47
:1016B000D0E090E0012E02C0959587950A94E2F75C
:1016C00080FD24C082B1FE01EE53FE4F9081892B34
:1016D00082B9812F0E94C40A2091A00281E090E08B
:1016E000012E02C0880F991F0A94E2F7282B20933D
:1016F000A0020CC0153021F4C7010E94760A22C056
:10170000143021F4C7010E94790A1CC0133021F45F
:10171000C7010E947C0A16C0123021F4C7010E9442
:10172000E20A10C0113021F4C7010E94E70A0AC082
:10173000112341F4C7010E94EC0A04C012E0A6CFB5
:1017400015E070CFDF91CF911F91FF90EF9008953A
:101750001F920F920FB60F920BB60F9211242F9378
:101760003F934F935F936F937F938F939F93AF9329
:10177000BF93EF93FF938091A7029091A802892BCA
:1017800029F0E091A702F091A8020995FF91EF914D
:10179000BF91AF919F918F917F916F915F914F9189
:1017A0003F912F910F900BBE0F900FBE0F901F9087
:1017B00018951F920F920FB60F920BB60F9211242D
:1017C0002F933F934F935F936F937F938F939F9349
:1017D000AF93BF93EF93FF938091B1029091B202C8
:1017E000892B29F0E091B102F091B2020995FF91A5
:1017F000EF91BF91AF919F918F917F916F915F9189
:101800004F913F912F910F900BBE0F900FBE0F90F5
:101810001F9018951F920F920FB60F920BB60F9252
:1018200011242F933F934F935F936F937F938F93E5
:101830009F93AF93BF93EF93FF938091B7029091E3
:10184000B802892B29F0E091B702F091B80209950E
:10185000FF91EF91BF91AF919F918F917F916F9188
:101860005F914F913F912F910F900BBE0F900FBE44
:101870000F901F9018951F920F920FB60F920BB6F4
:101880000F9211242F933F934F935F936F937F9306
:101890008F939F93AF93BF93EF93FF938091A30296
:1018A0009091A402892B29F0E091A302F091A40267
:1018B0000995FF91EF91BF91AF919F918F917F918A
:1018C0006F915F914F913F912F910F900BBE0F90B1
:1018D0000FBE0F901F9018951F920F920FB60F9288
:1018E0000BB60F9211242F933F934F935F936F93F7
:1018F0007F938F939F93AF93BF93EF93FF938091C9
:10190000A9029091AA02892B29F0E091A902F091F5
:10191000AA020995FF91EF91BF91AF919F918F918D
:101920007F916F915F914F913F912F910F900BBEDF
:101930000F900FBE0F901F9018951F920F920FB629
:101940000F920BB60F9211242F933F934F935F93F7
:101950006F937F938F939F93AF93BF93EF93FF9377
:101960008091AB029091AC02892B29F0E091AB02FF
:10197000F091AC020995FF91EF91BF91AF919F91CA
:101980008F917F916F915F914F913F912F910F9028
:101990000BBE0F900FBE0F901F9018951F920F92C5
:1019A0000FB60F920BB60F9211242F933F934F93C4
:1019B0005F936F937F938F939F93AF93BF93EF93B7
:1019C000FF938091AD029091AE02892B29F0E091B6
:1019D000AD02F091AE020995FF91EF91BF91AF91E9
:1019E0009F918F917F916F915F914F913F912F9137
:1019F0000F900BBE0F900FBE0F901F9018951F9267
:101A00000F920FB60F920BB60F9211242F933F93A4
:101A10004F935F936F937F938F939F93AF93BF93F6
:101A2000EF93FF938091AF029091B002892B29F040
:101A3000E091AF02F091B0020995FF91EF91BF9153
:101A4000AF919F918F917F916F915F914F913F9156
:101A50002F910F900BBE0F900FBE0F901F901895F7
:101A60001F920F920FB60F920BB60F9211242F9365
:101A70003F934F935F936F937F938F939F93AF9316
:101A8000BF93EF93FF938091B3029091B402892B9F
:101A900029F0E091B302F091B4020995FF91EF9122
:101AA000BF91AF919F918F917F916F915F914F9176
:101AB0003F912F910F900BBE0F900FBE0F901F9074
:101AC00018951F920F920FB60F920BB60F9211241A
:101AD0002F933F934F935F936F937F938F939F9336
:101AE000AF93BF93EF93FF938091B9029091BA02A5
:101AF000892B29F0E091B902F091BA020995FF9182
:101B0000EF91BF91AF919F918F917F916F915F9175
:101B10004F913F912F910F900BBE0F900FBE0F90E2
:101B20001F9018951F920F920FB60F920BB60F923F
:101B300011242F933F934F935F936F937F938F93D2
:101B40009F93AF93BF93EF93FF938091BB029091CC
:101B5000BC02892B29F0E091BB02F091BC020995EF
:101B6000FF91EF91BF91AF919F918F917F916F9175
:101B70005F914F913F912F910F900BBE0F900FBE31
:101B80000F901F9018951F920F920FB60F920BB6E1
:101B90000F9211242F933F934F935F936F937F93F3
:101BA0008F939F93AF93BF93EF93FF938091BD0269
:101BB0009091BE02892B29F0E091BD02F091BE0206
:101BC0000995FF91EF91BF91AF919F918F917F9177
:101BD0006F915F914F913F912F910F900BBE0F909E
:101BE0000FBE0F901F9018951F920F920FB60F9275
:101BF0000BB60F9211242F933F934F935F936F93E4
:101C00007F938F939F93AF93BF93EF93FF938091B5
:101C1000BF029091C002892B29F0E091BF02F091A0
:101C2000C0020995FF91EF91BF91AF919F918F9164
:101C30007F916F915F914F913F912F910F900BBECC
:101C40000F900FBE0F901F90189583E061E00E94E7
:101C5000AC0984E061E00E94AC0978940E94E3073B
:101C60000E94E007FDCFDC01ED91FC910190F08135
:101C7000E02D099508950E94330E08950F931F9348
:101C8000CF93DF938C01EB0104C02196C8010E9421
:101C90003B0E68816623C9F7DF91CF911F910F91A9
:101CA00008952F923F924F925F926F927F928F9200
:101CB0009F92AF92BF92CF92DF92EF92FF920F93DB
:101CC0001F93DF93CF93CDB7DEB7A0970FB6F894ED
:101CD000DEBF0FBECDBF1C016A017B01411551055E
:101CE0006105710521F460E30E943B0E4FC088241A
:101CF00099245401422E55246624772401E010E0F3
:101D00000C0F1D1F080D191DC701B601A30192017B
:101D10000E942111F80160830894811C911CA11C70
:101D2000B11CC701B601A30192010E942111C90192
:101D3000DA016C017D01C114D104E104F104F1F672
:101D400081E0E82EF12CEC0EFD1EE80CF91C3E01A2
:101D50000894611C711CD501C4010197A109B10946
:101D60006C01C818D9080FC0F601EE0DFF1D608187
:101D70006A3010F4605D01C0695CC1010E943B0ED5
:101D80000894E108F1086E147F0471F7A0960FB66D
:101D9000F894DEBF0FBECDBFCF91DF911F910F91A1
:101DA000FF90EF90DF90CF90BF90AF909F908F907B
:101DB0007F906F905F904F903F902F900895EF929B
:101DC000FF920F931F93CF93DF93EC017A018B0166
:101DD00077FF0BC06DE20E943B0E10950095F094CA
:101DE000E094E11CF11C011D111DCE01B801A701F9
:101DF0002AE00E94510EDF91CF911F910F91FF9029
:101E0000EF900895AB01662757FD6095762F0E94ED
:101E1000DF0E08955058BB27AA270ED075C166D192
:101E200030F06BD120F031F49F3F11F41EF45BC110
:101E30000EF4E095E7FB51C1E92F77D180F3BA1793
:101E4000620773078407950718F071F49EF58FC138
:101E50000EF4E0950B2EBA2FA02D0B01B9019001C5
:101E60000C01CA01A0011124FF27591B99F0593F09
:101E700050F4503E68F11A16F040A22F232F342F51
:101E80004427585FF3CF469537952795A795F0409F
:101E90005395C9F77EF41F16BA0B620B730B840BB4
:101EA000BAF09150A1F0FF0FBB1F661F771F881F6C
:101EB000C2F70EC0BA0F621F731F841F48F48795C4
:101EC00077956795B795F7959E3F08F0B3CF9395B3
:101ED000880F08F09927EE0F979587950895D9D028
:101EE00008F481E008950CD00FC107D140F0FED076
:101EF00030F021F45F3F19F0F0C0511139C1F3C047
:101F000014D198F39923C9F35523B1F3951B550BBD
:101F1000BB27AA2762177307840738F09F5F5F4FBC
:101F2000220F331F441FAA1FA9F333D00E2E3AF0FD
:101F3000E0E830D091505040E695001CCAF729D017
:101F4000FE2F27D0660F771F881FBB1F2617370766
:101F50004807AB07B0E809F0BB0B802DBF01FF2796
:101F600093585F4F2AF09E3F510568F0B6C000C1FC
:101F70005F3FECF3983EDCF3869577956795B795D0
:101F8000F7959F5FC9F7880F911D9695879597F9EB
:101F90000895E1E0660F771F881FBB1F6217730764
:101FA0008407BA0720F0621B730B840BBA0BEE1F79
:101FB00088F7E095089504D06894B111D9C00895C8
:101FC000BCD088F09F5790F0B92F9927B751A0F057
:101FD000D1F0660F771F881F991F1AF0BA95C9F7BD
:101FE00012C0B13081F0C3D0B1E00895C0C0672FF6
:101FF000782F8827B85F39F0B93FCCF3869577956D
:102000006795B395D9F73EF4909580957095619555
:102010007F4F8F4F9F4F0895E89409C097FB3EF480
:1020200090958095709561957F4F8F4F9F4F992325
:10203000A9F0F92F96E9BB279395F69587957795A3
:102040006795B795F111F8CFFAF4BB0F11F460FF63
:102050001BC06F5F7F4F8F4F9F4F16C0882311F0BB
:1020600096E911C0772321F09EE8872F762F05C0CF
:10207000662371F096E8862F70E060E02AF09A956A
:10208000660F771F881FDAF7880F9695879597F95F
:102090000895990F0008550FAA0BE0E8FEEF1616F9
:1020A0001706E807F907C0F012161306E407F5074C
:1020B00098F0621B730B840B950B39F40A2661F0C0
:1020C000232B242B252B21F408950A2609F4A14063
:1020D000A6958FEF811D811D089597F99F6780E870
:1020E00070E060E008959FEF80EC089500240A946A
:1020F0001616170618060906089500240A941216E3
:102100001306140605060895092E0394000C11F415
:10211000882352F0BB0F40F4BF2B11F460FF04C0C2
:102120006F5F7F4F8F4F9F4F089557FD9058440F1B
:10213000551F59F05F3F71F04795880F97FB991F26
:1021400061F09F3F79F087950895121613061406E3
:10215000551FF2CF4695F1DF08C016161706180670
:10216000991FF1CF86957105610508940895E8944B
:10217000BB2766277727CB0197F908950BD0C4CFEB
:10218000B5DF28F0BADF18F0952309F0A6CFABCF62
:102190001124EECFCADFA0F3959FD1F3950F50E045
:1021A000551F629FF001729FBB27F00DB11D639F09
:1021B000AA27F00DB11DAA1F649F6627B00DA11DAF
:1021C000661F829F2227B00DA11D621F739FB00D55
:1021D000A11D621F839FA00D611D221F749F3327C5
:1021E000A00D611D231F849F600D211D822F762F5E
:1021F0006A2F11249F5750408AF0E1F088234AF05B
:10220000EE0FFF1FBB1F661F771F881F91505040A6
:10221000A9F79E3F510570F060CFAACF5F3FECF366
:10222000983EDCF3869577956795B795F795E79592
:102230009F5FC1F7FE2B880F911D9695879597F9A3
:102240000895A1E21A2EAA1BBB1BFD010DC0AA1FF7
:10225000BB1FEE1FFF1FA217B307E407F50720F00F
:10226000A21BB30BE40BF50B661F771F881F991F8A
:102270001A9469F760957095809590959B01AC01D3
:10228000BD01CF010895EE0FFF1F0590F491E02DE1
:062290000994F894FFCF51
:10229600453A002000523A004C3A004B703A004B47
:1022A600643A007475726E696E670066696E646979
:1022B6006E672074617065007461706500536574A3
:1022C600757021007468726573683A0050726573A0
:1022D600732053746F7000496E697420537065657E
:1022E600643A00507265737320537461727400FF10
:1022F6000000803F64004600B400320035003B0019
:102306003800230062006500310034003A003700CF
:1023160022006100640030003300390036002100DD
:102326002000630001FF18001900260027000500A1
:10233600040001000000000000005502000000003B
:10234600BD041003720457048C0401020408102013
:082356004080201008804020A7
:00000001FF
