:100000000C9448000C947C000C947C000C947C00B4
:100010000C947C000C947C000C947C000C947C0070
:100020000C947C000C94B50D0C945E0C0C94840D17
:100030000C94F10C0C94220D0C942D0C0C94C00C0F
:100040000C940F090C947C000C9468030C94F70337
:100050000C947C000C947C000C947C000C947C0030
:100060000C94530D0C94790E0C94E60D0C94170E11
:100070000C94480E0C948F0C0C9439030C94B00320
:100080000C947C000C947C000C947C001F054605AD
:1000900011241FBECFEFD0E1DEBFCDBF88E483BF08
:1000A00084E00E948B0A12BE87B7816087BF789474
:1000B00011E0A0E0B1E0E4EEF3E200E00BBF02C02B
:1000C00007900D92A23DB107D9F712E0A2EDB1E081
:1000D00001C01D92AD3CB107E1F710E0C0E9D0E0EE
:1000E00004C02297FE010E94EC11CC38D107C9F759
:1000F0000E94AA0E0C94F0110C9400000F931F9311
:10010000CF93DF93EB018A01CC0FDD1F57FD0CC0AD
:10011000FE01E156FE4F808161E00E94010AC9554F
:10012000DE4F8881B8010EC0FE01E156FE4F80818E
:1001300060E00E94010AC955DE4F66277727601BE1
:10014000710B88810E94760BDF91CF911F910F91E7
:1001500008951F93CF93DF93C0E0D0E0FE01E156F6
:10016000FE4F1081812F61E00E94B809812F61E06C
:100170000E94010AFE01E955FE4F808160E070E0B7
:100180000E94760B2296C830D10541F7DF91CF91BE
:100190001F910895FC0110828AE090E0938382838E
:1001A0000895CF93DF93EC01882777FD8095982FF2
:1001B0000E948E1020E030E044E353E40E94F80FE8
:1001C00020E030E040EF51E40E943E1120E030E0BA
:1001D00040E251E40E94900F0E946010CB016A300F
:1001E000710510F48AE090E08932910510F088E200
:1001F00090E09B838A83DF91CF910895E09168011D
:10020000E7FD15C0FF27E7FDF095EE0FFF1FEE524B
:10021000FE4F0190F081E02D818160E00E94010A93
:1002200006C02F5F81919191892B69F00EC02091BA
:1002300068012F5FE22FFF27E7FDF0952150EE0FB9
:10024000FF1FEE52FE4F273064F320936801E091C8
:100250006801FF27E7FDF095EE0FFF1FEE52FE4FFE
:100260000190F081E02D309761F48FEF8093680169
:1002700024EF31E08091E3019091E401281B390BD8
:1002800012C0818161E00E94010AE0916801FF27AC
:10029000E7FDF095EE0FFF1FEE52FE4F0190F0814B
:1002A000E02D2281338183B5820F83BD8091E301EC
:1002B0009091E401820F931F9093E4018093E301F6
:1002C000845F914020F01092E4011092E3010895C0
:1002D0000E94A30A87B78F7787BF85E00E949E0A96
:1002E00089E06EEF70E00E94BF0A83B58C5083BD39
:1002F00087B7806887BF1092E4011092E3018FEF07
:10030000809368010895CF93DF93EC018091E2011F
:10031000893010F080E03DC06983862F61E00E9443
:10032000B809E881F0E0EE0FFF1FEE52FE4F80812A
:100330009181C817D90761F14091E201442341F44A
:10034000E2EDF1E01192119281E0E23EF807D1F77F
:10035000E2EDF1E020E030E080819181892B61F4D1
:10036000F901EE0FFF1FEE52FE4FD183C0832883A9
:100370004F5F4093E20106C02F5F3F4F3296283017
:10038000310551F78091E201813011F40E9468013A
:1003900081E0DF91CF910895CF93DF93EC018A81C3
:1003A00060E00E94010A8D8160E00E94310A8D8127
:1003B00060E00E94530A8B8161E00E94010A8C81F7
:1003C00061E00E94010A0000000010C08C8160E022
:1003D0000E94010A00000000000000008C8161E022
:1003E0000E94010A00000000000000008D810E94B0
:1003F000480A87FDEBCF8C8160E00E94010ADF9103
:10040000CF910895FF920F931F938C01F62E0E94B7
:10041000CC01F801828161E00E94010AF801838128
:1004200060E00E94010AF801848161E00E94010AF3
:10043000F801858161E00E94310AF80185816F2D04
:100440000E94530A0000000000000000F8018481AF
:1004500060E00E94010AF801858160E00E94310A93
:10046000F80185816FEF0E94530A1F910F91FF9051
:100470000895EF92FF920F931F93CF93DF937C0128
:10048000042F6115710551F0EB0110E005C0C701A3
:1004900069910E9402021F5F1017C8F3DF91CF918C
:1004A0001F910F91FF90EF900895DF93CF930F92DC
:1004B000CDB7DEB76983BE016F5F7F4F41E00E9419
:1004C00039020F90CF91DF910895FF920F931F9300
:1004D0008C01F62E0E94CC01F801828160E00E941E
:1004E000010AF801838160E00E94010AF801848119
:1004F00061E00E94010AF801858161E00E94310AF1
:10050000F80185816F2D0E94530A00000000000051
:100510000000F801848160E00E94010AF8018581F1
:1005200060E00E94310AF80185816FEF0E94530A52
:100530001F910F91FF900895423031F0433031F018
:10054000413029F4605C03C06C5E01C06C5A606885
:100550000E946502089562E00E946502089561E0CC
:100560000E94650208950F931F938C01FC01828104
:1005700060E00E94010AF801838160E00E94010AA4
:10058000F801848160E00E94010AF801828161E043
:100590000E94B809F801838161E00E94B809F8015E
:1005A000848161E00E94B809F801858160E00E94C1
:1005B000310AF80185816FEF0E94530A1F910F9154
:1005C00008950F931F938C010E94B302C80168E342
:1005D0000E946502C80161E00E946502C80166E0F0
:1005E0000E946502C8016CE00E946502C80162E0D9
:1005F0000E946502C80160E80E9465021F910F9188
:1006000008950F93FC0183EB91E0918380836283D3
:10061000438324830583CF010E94E1020F91089553
:10062000FC0124813581C9010895DC01FC0182812E
:100630009381809714F080E00895FD018281938179
:1006400001969383828384819581E80FF91F6087E7
:100650000196FD01958384832D913C91119782171A
:10066000930714F481E00895FD011582148281E05E
:1006700008951F920F920FB60F920BB60F9211248E
:100680002F933F934F935F936F937F938F939F939A
:10069000AF93BF93EF93FF93E0917B02F0917C02C5
:1006A000608183E392E00E941503FF91EF91BF9177
:1006B000AF919F918F917F916F915F914F913F91FA
:1006C0002F910F900BBE0F900FBE0F901F9018959B
:1006D0001F920F920FB60F920BB60F9211242F9309
:1006E0003F934F935F936F937F938F939F93AF93BA
:1006F000BF93EF93FF93E0912F02F091300260815E
:1007000087EE91E00E941503FF91EF91BF91AF91A9
:100710009F918F917F916F915F914F913F912F9119
:100720000F900BBE0F900FBE0F901F901895DC011D
:10073000FC018281938101979383828386819781D3
:10074000E80FF91F40850196FD01978386832D915F
:100750003C918217930714F017821682842F089514
:100760001F920F920FB60F920BB60F9211240F9398
:100770001F932F933F934F935F936F937F938F9329
:100780009F93AF93BF93EF93FF9380915D029091FE
:100790005E021816190654F400917B0210917C0237
:1007A0008BE592E00E949703F801808380915D02BF
:1007B00090915E02892B31F4E0917902F0917A02F6
:1007C00088E98083FF91EF91BF91AF919F918F91C5
:1007D0007F916F915F914F913F912F911F910F9159
:1007E0000F900BBE0F900FBE0F901F9018951F9289
:1007F0000F920FB60F920BB60F9211240F931F9307
:100800002F933F934F935F936F937F938F939F9318
:10081000AF93BF93EF93FF938091110290911202D7
:100820001816190654F400912F02109130028FE02F
:1008300092E00E949703F8018083809111029091C9
:100840001202892B31F4E0912D02F0912E0288E9F9
:100850008083FF91EF91BF91AF919F918F917F9195
:100860006F915F914F913F912F911F910F910F9039
:100870000BBE0F900FBE0F901F901895DC01FC016E
:100880008281938101979383828386819781E80F88
:10089000F91F40850196FD01978386832D913C9138
:1008A0008217930714F017821682842F0895FC0193
:1008B00084819581892B19F42FEF3FEF06C0CF017A
:1008C00002960E943E04282F30E0C9010895CF937C
:1008D000DF93EC01EE81FF81E80FF91F8085DF9146
:1008E000CF910895FC0184819581892B19F42FEF14
:1008F0003FEF06C0CF0102960E946704282F30E028
:10090000C9010895FC011382128282819381978329
:10091000868395838483089502960E9482040895B5
:10092000FC0180E290E091838083CF010E948204E9
:100930000895DC01FC0182819381409714F080E0EE
:100940000895FD018281938101969383828384813E
:100950009581E80FF91F60870196FD0195838483D7
:100960002D913C9111978217930714F481E008951B
:10097000FD011582148281E00895CF93DF93EC018D
:100980008CA59DA54097E4F7F894CE018A960E9425
:100990009904C85BDF4FE881F981808180628083A0
:1009A0007894DF91CF910895FC01138212828281A5
:1009B000938197838683958384830895FC0180E1E6
:1009C00090E091838083CF010E94D40408956F92B8
:1009D0007F928F929F92AF92BF92CF92DF92EF92CF
:1009E000FF920F931F936C015B014A013901FC01D7
:1009F00089EB91E081939193CF010E949004C6010D
:100A00008A960E94DE0482E490E0C80ED91EF601A8
:100A1000A192B192819291926192719201931193FC
:100A2000F182E0821F910F91FF90EF90DF90CF90C5
:100A3000BF90AF909F908F907F906F900895EF92AE
:100A4000FF920F931F9385EE91E060E970E049E219
:100A500050E02BE230E00AE210E0FCE2EF2EF12C55
:100A60000E94E70481E392E068E970E049E950E020
:100A70002BE930E00AE910E0ECE9EE2EF12C0E94BF
:100A8000E7041F910F91FF90EF9008950F938DE76A
:100A900092E06AE14BE12CE102E00E94010383E86D
:100AA00092E00E94A90085E892E00E94CA0089E8CD
:100AB00092E00E94CA008DE892E00E94CA000F9165
:100AC0000895AF92BF92CF92DF92EF92FF920F9371
:100AD0001F93CF93DF9385E00E94670A7C0180E03B
:100AE0000E94670A8C0186E00E94670A6C0187E019
:100AF0000E94670A5C0140919302509194022091F8
:100B00009102309192022E153F0564F420173107AF
:100B10000CF021C110929402109293021CC181E04A
:100B200090E01BC0E216F306E4F4201731070CF046
:100B300017C18FEF9FEF909394028093930210C19F
:100B40001416150634F485E090E090939402809397
:100B5000930257FF06C08BEF9FEF90939402809310
:100B60009302E0919302F0919402E417F50791F05B
:100B700050939602409395028091690190916A0189
:100B8000909398028093970281E090E090936A019D
:100B90008093690180919502909196029F01281B94
:100BA000390B6091690170916A018091970290916F
:100BB0009802680F791FA29EC001A39E900DB29E5D
:100BC000900D11240E94A111CE9EC001CF9E900DC8
:100BD000DE9E900D1124680F791F809199029091EB
:100BE0009A02AB01480F591FEC01C61BD70B24E03A
:100BF0004130520714F04FEF53E084E0C130D80782
:100C000014F0CFEFD3E083E892E060E070E00E9460
:100C10007E0083E892E063E070E0AE010E947E0017
:100C200080919B0290919C028C52914009F078C077
:100C30008DE792E00E94AF028DE792E00E94AB0246
:100C40008DE792E060E071E00E94C30E6091930234
:100C5000709194028DE792E00E94870F8DE792E0F9
:100C600063E071E00E94C30E8DE792E065E071E001
:100C70000E94C30E8DE792E0B8010E94870F8DE7B6
:100C800092E063E071E00E94C30E8DE792E068E0BD
:100C900071E00E94C30E8DE792E0B7010E94870FBA
:100CA0008DE792E063E071E00E94C30E8DE792E071
:100CB00060E041E00E949C028DE792E06BE071E011
:100CC0000E94C30E8DE792E0B6010E94870F8DE768
:100CD00092E063E071E00E94C30E8DE792E06FE066
:100CE00071E00E94C30E8DE792E0B5010E94870F6C
:100CF0008DE792E063E071E00E94C30E609199027B
:100D000070919A028DE792E00E94870F65E070E093
:100D100080E090E00E94920910929C0210929B0247
:100D200080919B0290919C02019690939C028093EB
:100D30009B028091690190916A01019690936A01EA
:100D40008093690180919F020E94E809882369F4D9
:100D50000E94A7070AC0021713070CF4E0CE01CFC8
:100D6000021713070CF4ECCEFCCEDF91CF911F914C
:100D70000F91FF90EF90DF90CF90BF90AF900895CC
:100D8000AF92BF92CF92DF92EF92FF920F931F9399
:100D9000CF93DF938DE792E00E94AF028DE792E060
:100DA0000E94AB028DE792E063E171E00E94C30E06
:100DB0008DE792E063E071E00E94C30E65E070E0B1
:100DC00080E090E00E9492090E9457095B016C014B
:100DD00012C0409171015091720183E892E060E08D
:100DE00070E00E947E0083E892E063E070E040E003
:100DF00050E00E947E000E9457090E948C107B01E7
:100E00008C01C601B5010E948E1020E030E04AEF4F
:100E100053E40E94900F9B01AC01C801B7010E94EE
:100E2000F40F87FDD6CF85E00E94670AEC0180E0D1
:100E30000E94670A5C0186E00E94670A6C01C8177D
:100E4000D9070CF04CC0A816B9060CF04BC0409165
:100E500071015091720183E892E060E070E00E94BD
:100E60007E0083E892E063E070E040E050E00E94A2
:100E70007E008DE792E00E94AF028DE792E00E9433
:100E8000AB028DE792E06BE171E00E94C30E8DE74B
:100E900092E060E041E00E949C028DE792E0B501A3
:100EA0000E94870F8DE792E063E071E00E94C30E1D
:100EB0008DE792E0BE010E94870F8DE792E063E02C
:100EC00071E00E94C30E8DE792E0B6010E94870F89
:100ED00065E070E080E090E00E94920903C08C170A
:100EE0009D0724F0CA14DB040CF09DCF0E9461051D
:100EF0008DE792E00E94AF028DE792E00E94AB0284
:100F00008DE792E068E271E00E94C30E8DE792E007
:100F100060E041E00E949C028DE792E0B5010E94F2
:100F2000870F8DE792E063E071E00E94C30E8DE7CA
:100F300092E0BE010E94870FDF91CF911F910F9128
:100F4000FF90EF90DF90CF90BF90AF90089583E82F
:100F500092E063E070E040E050E00E947E0083E8B1
:100F600092E060E070E040E050E00E947E0068EEB9
:100F700073E080E090E00E94920960916F017091AF
:100F8000700185E892E00E94D10060ED77E080E09A
:100F900090E00E94920960916B0170916C0185E86C
:100FA00092E00E94D10068EE73E080E090E00E9441
:100FB00092096091A1027091A20289E892E00E94D8
:100FC000D10060ED77E080E090E00E9492096091AE
:100FD0006D0170916E0189E892E00E94D10060ED90
:100FE00077E080E090E00E9492096091A102709108
:100FF000A20289E892E00E94D10060ED77E080E0F3
:1010000090E00E94920980919D0290919E0201962B
:1010100090939E0280939D028DE792E00E94AF0222
:101020008DE792E00E94AB028DE792E06DE271E005
:101030000E94C30E60919D0270919E028DE792E026
:101040000E94870F80919D0290919E020397F4F475
:1010500060916D0170916E0189E892E00E94D1006B
:1010600060ED77E080E090E00E9492090E946105C7
:101070008DE792E00E94AF028DE792E00E94AB0202
:101080008DE792E068E271E00E94C30E80919D02BC
:1010900090919E020397C1F460916F01709170016D
:1010A00085E892E00E94D1000E94C0068DE792E0A0
:1010B0000E94AF028DE792E00E94AB028DE792E0C2
:1010C00063E171E00E94C30E08950E9461050895D6
:1010D00080E060E00E94310A81E060E00E94310A15
:1010E00085E892E063E270E00E94830189E892E083
:1010F0006FE170E00E9483018DE892E062E270E0AF
:101100000E94830160916B0170916C0185E892E00F
:101110000E94D10060916D0170916E0189E892E0AA
:101120000E94D1008DE792E00E94AF028DE792E02D
:101130000E94AB028DE792E066E371E00E94C30E6D
:1011400068EB7BE080E090E02DC086E00E94670ABB
:1011500090939202809391028DE792E00E94AF02F9
:101160008DE792E00E94AB028DE792E06DE371E0C3
:101170000E94C30E60919102709192028DE792E0FD
:101180000E94870F8DE792E060E041E00E949C02A0
:101190008DE792E065E471E00E94C30E65E070E0C7
:1011A00080E090E00E94920981E30E94E809882390
:1011B00061F62FC086E00E94670A90939A0280939E
:1011C00099028DE792E00E94AF028DE792E00E94C3
:1011D000AB028DE792E060E571E00E94C30E609182
:1011E000990270919A028DE792E00E94870F8DE735
:1011F00092E060E041E00E949C028DE792E06CE5A5
:1012000071E00E94C30E65E070E080E090E00E9413
:10121000920982E30E94E809882361F608951F92EB
:101220000F920FB60F9211242F933F938F939F939A
:10123000AF93BF938091A7029091A802A091A902B9
:10124000B091AA023091AB020196A11DB11D232FCE
:101250002D5F2D3720F02D570196A11DB11D209334
:10126000AB028093A7029093A802A093A902B09327
:10127000AA028091A3029091A402A091A502B0912C
:10128000A6020196A11DB11D8093A3029093A40212
:10129000A093A502B093A602BF91AF919F918F91A9
:1012A0003F912F910F900FBE0F901F9018958FB701
:1012B000F8942091A7023091A8024091A902509180
:1012C000AA028FBFB901CA0108956FB7F89420919F
:1012D000A3023091A4024091A5025091A60282B7C8
:1012E00090E0A0E0B0E006B600FE09C08F3F910597
:1012F000A105B10521F02F5F3F4F4F4F5F4F6FBFEB
:10130000542F432F322F2227280F391F4A1F5B1FCC
:1013100082E0220F331F441F551F8A95D1F7B90170
:10132000CA010895EF92FF920F931F93CF93DF931B
:101330007B018C010E946509EB010EC00E946509CA
:101340006C1B7D0B685E7340C8F30894E108F108DC
:1013500001091109C851DC4FE114F104010511051F
:1013600069F7DF91CF911F910F91FF90EF90089552
:10137000E82FE695E695E695A82FB0E0613099F460
:101380002FB7F894F0E0EE0FFF1FEF57FE4F0190DC
:10139000F081E02D9081A770B070AD53BE4F8C915D
:1013A000982B908313C02FB7F894F0E0EE0FFF1F37
:1013B000EF57FE4F0190F081E02D9081A770B07043
:1013C000AD53BE4F8C918095892380832FBF0895A4
:1013D000A82FE82FE695E695E695F0E0EE0FFF1FC3
:1013E000E157FE4F0190F081E02DE081B0E0A77061
:1013F000B070AD53BE4F8C91E82309F0E1E08E2F21
:101400000895E82FE695E695E695A82FB0E06130BF
:1014100099F42FB7F894F0E0EE0FFF1FED58FE4F50
:101420000190F081E02D9081A770B070AD53BE4F58
:101430008C91982B908313C02FB7F894F0E0EE0FA7
:10144000FF1FED58FE4F0190F081E02D9081A770B5
:10145000B070AD53BE4F8C918095892380832FBF90
:101460000895E82FF0E0613051F4EE0FFF1FEF57C1
:10147000FE4F0190F081E02D8FEF80830895EE0FF5
:10148000FF1FEF57FE4F0190F081E02D108208956D
:10149000E82FF0E0EE0FFF1FE157FE4F0190F081C3
:1014A000E02D80810895E82FF0E0EE0FFF1FED584A
:1014B000FE4F0190F081E02D60830895109261004D
:1014C0001092620080E487B987EE86B908951F9371
:1014D000182F80919D01813021F40E945E0A1092A4
:1014E0009D0180919E01181721F4349A349BFECF00
:1014F0000DC010939E0187B11770807E812B87B934
:10150000349A349BFECF349A349BFECF24B135B14C
:10151000C9011F91089593B7987F982B93BF0895A1
:101520009EB5987F982B9EBD089583E00E94900AF7
:101530001DBC1CBC87B7846087BF089595B5987F94
:10154000982B95BD089582E00E949E0A14BC87B72F
:10155000806487BF0895EAE8F0E09081987F982B37
:101560009083089583E00E94AB0A10928900109244
:101570008800EDE7F0E08081846080830895803109
:1015800040F4E82FF0E0EE0FFF1FE355FD4F7183AD
:1015900060830895893031F48FB582608FBD8FB537
:1015A0008E7F0AC08A3019F48FB5826002C08FB571
:1015B0008D7F8FBD8FB581608FBD1BBC1ABC19BCE0
:1015C00018BC109279001092780008958FB5806849
:1015D0008FBD8FB58F7B8FBD08958FB580628FBD16
:1015E0008FB58F7E8FBD08958FB588608FBD8FB505
:1015F0008B7F8FBD08959BBD8ABD089599BD88BD21
:10160000089590937900809378000895893049F483
:1016100080918B00826080938B0080918B008E7F05
:101620000EC08A3021F480918B00826003C08091CB
:101630008B008D7F80938B0080918B0081608093E5
:101640008B001092870010928600109285001092F5
:10165000840010928300109282000895EBE8F0E07D
:1016600080818068808380818F7B80830895EBE810
:10167000F0E080818062808380818F7E8083089506
:10168000EBE8F0E080818860808380818B7F8083BD
:101690000895853019F40E94E60A0895843019F4FB
:1016A0000E94ED0A0895833019F40E94F40A089507
:1016B000823019F40E942E0B0895813019F40E9493
:1016C000370B0895882311F40E94400B08959093DE
:1016D000870080938600089590938500809384000E
:1016E000089590938300809382000895EF92FF9273
:1016F0001F93CF93DF93182F7B018D31B0F08F3183
:1017000011F413E014C08E3111F414E010C08D31C7
:1017100009F49BC0853211F410E03DC0843211F40D
:1017200011E039C0833219F48EC08330A0F180916A
:10173000AC0286FD0BC00E94950A78948AE00E9454
:10174000CA0A8091AC0280648093AC028091AC02A2
:10175000C12FD0E090E0012E02C0959587950A94A4
:10176000E2F780FD4CC087B3FE01E553FE4F908148
:10177000892B87BB812F0E94490B2091AC0281E00D
:1017800090E0012E02C0880F991F0A94E2F7282BDF
:101790002093AC0234C08091AC0287FD0BC00E9444
:1017A000B20A78948AE00E94060B8091AC028068AD
:1017B0008093AC028091AC02C12FD0E090E0012E6A
:1017C00002C0959587950A94E2F780FD24C082B106
:1017D000FE01E553FE4F9081892B82B9812F0E9433
:1017E000490B2091AC0281E090E0012E02C0880FED
:1017F000991F0A94E2F7282B2093AC020CC01530F5
:1018000021F4C7010E94FB0A22C0143021F4C70151
:101810000E94FE0A1CC0133021F4C7010E94010B74
:1018200016C0123021F4C7010E94670B10C011309E
:1018300021F4C7010E946C0B0AC0112341F4C701B7
:101840000E94710B04C012E0A6CF15E070CFDF91AB
:10185000CF911F91FF90EF9008951F920F920FB6B6
:101860000F920BB60F9211242F933F934F935F93D8
:101870006F937F938F939F93AF93BF93EF93FF9358
:101880008091B3029091B402892B29F0E091B302C8
:10189000F091B4020995FF91EF91BF91AF919F91A3
:1018A0008F917F916F915F914F913F912F910F9009
:1018B0000BBE0F900FBE0F901F9018951F920F92A6
:1018C0000FB60F920BB60F9211242F933F934F93A5
:1018D0005F936F937F938F939F93AF93BF93EF9398
:1018E000FF938091BD029091BE02892B29F0E09177
:1018F000BD02F091BE020995FF91EF91BF91AF91AA
:101900009F918F917F916F915F914F913F912F9117
:101910000F900BBE0F900FBE0F901F9018951F9247
:101920000F920FB60F920BB60F9211242F933F9385
:101930004F935F936F937F938F939F93AF93BF93D7
:10194000EF93FF938091C3029091C402892B29F0F9
:10195000E091C302F091C4020995FF91EF91BF910C
:10196000AF919F918F917F916F915F914F913F9137
:101970002F910F900BBE0F900FBE0F901F901895D8
:101980001F920F920FB60F920BB60F9211242F9346
:101990003F934F935F936F937F938F939F93AF93F7
:1019A000BF93EF93FF938091AF029091B002892B88
:1019B00029F0E091AF02F091B0020995FF91EF910B
:1019C000BF91AF919F918F917F916F915F914F9157
:1019D0003F912F910F900BBE0F900FBE0F901F9055
:1019E00018951F920F920FB60F920BB60F921124FB
:1019F0002F933F934F935F936F937F938F939F9317
:101A0000AF93BF93EF93FF938091B5029091B6028D
:101A1000892B29F0E091B502F091B6020995FF916A
:101A2000EF91BF91AF919F918F917F916F915F9156
:101A30004F913F912F910F900BBE0F900FBE0F90C3
:101A40001F9018951F920F920FB60F920BB60F9220
:101A500011242F933F934F935F936F937F938F93B3
:101A60009F93AF93BF93EF93FF938091B7029091B1
:101A7000B802892B29F0E091B702F091B8020995DC
:101A8000FF91EF91BF91AF919F918F917F916F9156
:101A90005F914F913F912F910F900BBE0F900FBE12
:101AA0000F901F9018951F920F920FB60F920BB6C2
:101AB0000F9211242F933F934F935F936F937F93D4
:101AC0008F939F93AF93BF93EF93FF938091B9024E
:101AD0009091BA02892B29F0E091B902F091BA02F3
:101AE0000995FF91EF91BF91AF919F918F917F9158
:101AF0006F915F914F913F912F910F900BBE0F907F
:101B00000FBE0F901F9018951F920F920FB60F9255
:101B10000BB60F9211242F933F934F935F936F93C4
:101B20007F938F939F93AF93BF93EF93FF93809196
:101B3000BB029091BC02892B29F0E091BB02F0918D
:101B4000BC020995FF91EF91BF91AF919F918F9149
:101B50007F916F915F914F913F912F910F900BBEAD
:101B60000F900FBE0F901F9018951F920F920FB6F7
:101B70000F920BB60F9211242F933F934F935F93C5
:101B80006F937F938F939F93AF93BF93EF93FF9345
:101B90008091BF029091C002892B29F0E091BF0291
:101BA000F091C0020995FF91EF91BF91AF919F9184
:101BB0008F917F916F915F914F913F912F910F90F6
:101BC0000BBE0F900FBE0F901F9018951F920F9293
:101BD0000FB60F920BB60F9211242F933F934F9392
:101BE0005F936F937F938F939F93AF93BF93EF9385
:101BF000FF938091C5029091C602892B29F0E09154
:101C0000C502F091C6020995FF91EF91BF91AF9186
:101C10009F918F917F916F915F914F913F912F9104
:101C20000F900BBE0F900FBE0F901F9018951F9234
:101C30000F920FB60F920BB60F9211242F933F9372
:101C40004F935F936F937F938F939F93AF93BF93C4
:101C5000EF93FF938091C7029091C802892B29F0DE
:101C6000E091C702F091C8020995FF91EF91BF91F1
:101C7000AF919F918F917F916F915F914F913F9124
:101C80002F910F900BBE0F900FBE0F901F901895C5
:101C90001F920F920FB60F920BB60F9211242F9333
:101CA0003F934F935F936F937F938F939F93AF93E4
:101CB000BF93EF93FF938091C9029091CA02892B41
:101CC00029F0E091C902F091CA020995FF91EF91C4
:101CD000BF91AF919F918F917F916F915F914F9144
:101CE0003F912F910F900BBE0F900FBE0F901F9042
:101CF00018951F920F920FB60F920BB60F921124E8
:101D00002F933F934F935F936F937F938F939F9303
:101D1000AF93BF93EF93FF938091CB029091CC024E
:101D2000892B29F0E091CB02F091CC020995FF912B
:101D3000EF91BF91AF919F918F917F916F915F9143
:101D40004F913F912F910F900BBE0F900FBE0F90B0
:101D50001F90189583E061E00E94310A84E061E001
:101D60000E94310A78940E9468080E946508FDCF9D
:101D7000DC01ED91FC910190F081E02D0995089531
:101D80000E94B80E08950F931F93CF93DF938C0199
:101D9000EB0104C02196C8010E94C00E6881662331
:101DA000C9F7DF91CF911F910F9108952F923F9224
:101DB0004F925F926F927F928F929F92AF92BF925B
:101DC000CF92DF92EF92FF920F931F93DF93CF9307
:101DD000CDB7DEB7A0970FB6F894DEBF0FBECDBF6C
:101DE0001C016A017B01411551056105710521F452
:101DF00060E30E94C00E4FC0882499245401422EF3
:101E000055246624772401E010E00C0F1D1F080DF7
:101E1000191DC701B601A30192010E94B411F80176
:101E200060830894811C911CA11CB11CC701B601E0
:101E3000A30192010E94B411C901DA016C017D0174
:101E4000C114D104E104F104F1F681E0E82EF12C93
:101E5000EC0EFD1EE80CF91C3E010894611C711C7F
:101E6000D501C4010197A109B1096C01C818D908AD
:101E70000FC0F601EE0DFF1D60816A3010F4605D49
:101E800001C0695CC1010E94C00E0894E108F1081C
:101E90006E147F0471F7A0960FB6F894DEBF0FBEE4
:101EA000CDBFCF91DF911F910F91FF90EF90DF9009
:101EB000CF90BF90AF909F908F907F906F905F90EA
:101EC0004F903F902F900895EF92FF920F931F93A2
:101ED000CF93DF93EC017A018B0177FF0BC06DE2AA
:101EE0000E94C00E10950095F094E094E11CF11C46
:101EF000011D111DCE01B801A7012AE00E94D60ED6
:101F0000DF91CF911F910F91FF90EF900895AB015A
:101F1000662757FD6095762F0E94640F08955058EC
:101F2000BB27AA270ED070C161D130F066D120F056
:101F300031F49F3F11F41EF456C10EF4E095E7FB17
:101F40004CC1E92F72D180F3BA1762077307840777
:101F5000950718F071F49EF58AC10EF4E0950B2EEA
:101F6000BA2FA02D0B01B90190010C01CA01A001EB
:101F70001124FF27591B99F0593F50F4503E68F146
:101F80001A16F040A22F232F342F4427585FF3CF87
:101F9000469537952795A795F0405395C9F77EF458
:101FA0001F16BA0B620B730B840BBAF09150A1F0A1
:101FB000FF0FBB1F661F771F881FC2F70EC0BA0F27
:101FC000621F731F841F48F4879577956795B795AF
:101FD000F7959E3F08F0B3CF9395880F08F09927A7
:101FE000EE0F979587950895D4D008F481E0089571
:101FF0000CD00AC102D140F0F9D030F021F45F3F9B
:1020000019F0EBC0511134C1EEC00FD198F39923F0
:10201000C9F35523B1F3951B550BBB27AA276217AC
:102020007307840738F09F5F5F4F220F331F441FF1
:10203000AA1FA9F333D00E2E3AF0E0E830D0915029
:102040005040E695001CCAF729D0FE2F27D0660F16
:10205000771F881FBB1F261737074807AB07B0E855
:1020600009F0BB0B802DBF01FF2793585F4F2AF06B
:102070009E3F510568F0B1C0FBC05F3FECF3983E56
:10208000DCF3869577956795B795F7959F5FC9F7C8
:10209000880F911D9695879597F90895E1E0660F51
:1020A000771F881FBB1F621773078407BA0720F0CA
:1020B000621B730B840BBA0BEE1F88F7E095089533
:1020C000BCD088F09F5790F0B92F9927B751A0F056
:1020D000D1F0660F771F881F991F1AF0BA95C9F7BC
:1020E00012C0B13081F0C3D0B1E00895C0C0672FF5
:1020F000782F8827B85F39F0B93FCCF3869577956C
:102100006795B395D9F73EF4909580957095619554
:102110007F4F8F4F9F4F0895E89409C097FB3EF47F
:1021200090958095709561957F4F8F4F9F4F992324
:10213000A9F0F92F96E9BB279395F69587957795A2
:102140006795B795F111F8CFFAF4BB0F11F460FF62
:102150001BC06F5F7F4F8F4F9F4F16C0882311F0BA
:1021600096E911C0772321F09EE8872F762F05C0CE
:10217000662371F096E8862F70E060E02AF09A9569
:10218000660F771F881FDAF7880F9695879597F95E
:102190000895990F0008550FAA0BE0E8FEEF1616F8
:1021A0001706E807F907C0F012161306E407F5074B
:1021B00098F0621B730B840B950B39F40A2661F0BF
:1021C000232B242B252B21F408950A2609F4A14062
:1021D000A6958FEF811D811D089597F99F6780E86F
:1021E00070E060E008959FEF80EC089500240A9469
:1021F0001616170618060906089500240A941216E2
:102200001306140605060895092E0394000C11F414
:10221000882352F0BB0F40F4BF2B11F460FF04C0C1
:102220006F5F7F4F8F4F9F4F089557FD9058440F1A
:10223000551F59F05F3F71F04795880F97FB991F25
:1022400061F09F3F79F087950895121613061406E2
:10225000551FF2CF4695F1DF08C01616170618066F
:10226000991FF1CF86957105610508940895E8944A
:10227000BB2766277727CB0197F908950BD0C4CFEA
:10228000B5DF28F0BADF18F0952309F0A6CFABCF61
:102290001124EECFCADFA0F3959FD1F3950F50E044
:1022A000551F629FF001729FBB27F00DB11D639F08
:1022B000AA27F00DB11DAA1F649F6627B00DA11DAE
:1022C000661F829F2227B00DA11D621F739FB00D54
:1022D000A11D621F839FA00D611D221F749F3327C4
:1022E000A00D611D231F849F600D211D822F762F5D
:1022F0006A2F11249F5750408AF0E1F088234AF05A
:10230000EE0FFF1FBB1F661F771F881F91505040A5
:10231000A9F79E3F510570F060CFAACF5F3FECF365
:10232000983EDCF3869577956795B795F795E79591
:102330009F5FC1F7FE2B880F911D9695879597F9A2
:10234000089597FB092E07260AD077FD04D02ED0DA
:1023500006D000201AF4709561957F4F0895F6F726
:10236000909581959F4F0895A1E21A2EAA1BBB1B41
:10237000FD010DC0AA1FBB1FEE1FFF1FA217B30751
:10238000E407F50720F0A21BB30BE40BF50B661F67
:10239000771F881F991F1A9469F76095709580952B
:1023A00090959B01AC01BD01CF010895AA1BBB1BF9
:1023B00051E107C0AA1FBB1FA617B70710F0A61B45
:1023C000B70B881F991F5A95A9F780959095BC0166
:1023D000CD010895EE0FFF1F0590F491E02D0994B3
:0423E000F894FFCF9F
:1023E400453A002000523A004C3A004B703A004BF8
:1023F400643A007475726E696E670066696E64692A
:102404006E67207461706500746170650061727438
:102414006566616374005365747570210074687235
:102424006573683A0050726573732053746F70005B
:10243400496E69742053706565643A00507265731F
:102444007320537461727400FF01004600B400AA43
:10245400006400320035003B003800230062006550
:1024640000310034003A003700220061006400307B
:102474000033003900360021002000630001FF18FA
:1024840000190026002700050004000100000000D8
:10249400000000550200000000BD04100372045740
:1024A400048C04010204081020408020100880409D
:0224B400200006
:00000001FF
