:100000000C9448000C947C000C947C000C947C00B4
:100010000C947C000C947C000C947C000C947C0070
:100020000C947C000C94CE0A0C9477090C949D0AD5
:100030000C940A0A0C943B0A0C9446090C94D909B6
:100040000C9463060C947C000C942E030C94BD035A
:100050000C947C000C947C000C947C000C947C0030
:100060000C946C0A0C94920B0C94FF0A0C94300BB9
:100070000C94610B0C94A8090C94FF020C94760369
:100080000C947C000C947C000C947C00E5040C0522
:1000900011241FBECFEFD0E1DEBFCDBF88E483BF08
:1000A00084E00E94A40712BE87B7816087BF78945E
:1000B00011E0A0E0B1E0E8E7FDE100E00BBF02C025
:1000C00007900D92AA38B107D9F712E0AAE8B1E07B
:1000D00001C01D92A937B107E1F710E0C0E9D0E0F7
:1000E00004C02297FE010E94B60ECC38D107C9F792
:1000F0000E94C30B0C94BA0E0C9400001F93CF9374
:10010000DF93C0E0D0E0FE01E95AFE4F1081812F5D
:1001100061E00E94FE06812F61E00E944707FE0118
:10012000E15AFE4F808160E070E00E948F082296C5
:10013000C830D10541F7DF91CF911F910895FC019F
:1001400010828AE090E0938382830895CF93DF93B7
:10015000EC01882777FD8095982F0E94A30D20E061
:1001600030E044E353E40E940D0D20E030E040EF26
:1001700051E40E942F0E20E030E040E251E40E9462
:10018000A90C0E94750DCB016A30710510F48AE04C
:1001900090E08932910510F088E290E09B838A8399
:1001A000DF91CF910895E0912401E7FD15C0FF276D
:1001B000E7FDF095EE0FFF1FE657FE4F0190F0812F
:1001C000E02D818160E00E94470706C02F5F81918A
:1001D0009191892B69F00EC0209124012F5FE22FAD
:1001E000FF27E7FDF0952150EE0FFF1FE657FE4F6A
:1001F000273064F320932401E0912401FF27E7FDD9
:10020000F095EE0FFF1FE657FE4F0190F081E02DB5
:10021000309761F48FEF8093240124EF31E08091D7
:100220009B0190919C01281B390B12C0818161E0D8
:100230000E944707E0912401FF27E7FDF095EE0FAC
:10024000FF1FE657FE4F0190F081E02D22813381A0
:1002500083B5820F83BD80919B0190919C01820F99
:10026000931F90939C0180939B01845F914020F0A9
:1002700010929C0110929B0108950E94BC0787B7C1
:100280008F7787BF85E00E94B70789E063ED70E054
:100290000E94D80783B58C5083BD87B7806887BF1D
:1002A00010929C0110929B018FEF8093240108957E
:1002B000CF93DF93EC0180919A01893010F080E0B8
:1002C0003DC06983862F61E00E94FE06E881F0E070
:1002D000EE0FFF1FE657FE4F80819181C817D907A7
:1002E00061F140919A01442341F4EAE8F1E011926E
:1002F000119281E0EA39F807D1F7EAE8F1E020E06D
:1003000030E080819181892B61F4F901EE0FFF1FAC
:10031000E657FE4FD183C08328834F5F40939A01F5
:1003200006C02F5F3F4F32962830310551F780913C
:100330009A01813011F40E943D0181E0DF91CF915B
:100340000895CF93DF93EC018A8160E00E94470714
:100350008D8160E00E9477078D8160E00E9499079F
:100360008B8161E00E9447078C8161E00E94470712
:100370000000000010C08C8160E00E944707000070
:100380000000000000008C8161E00E94470700002F
:100390000000000000008D810E948E0787FDEBCFDA
:1003A0008C8160E00E944707DF91CF910895FF9212
:1003B0000F931F938C01F62E0E94A101F8018281F8
:1003C00061E00E944707F801838160E00E944707CF
:1003D000F801848161E00E944707F801858161E0AE
:1003E0000E947707F80185816F2D0E949907000010
:1003F000000000000000F801848160E00E944707CF
:10040000F801858160E00E947707F80185816FEF30
:100410000E9499071F910F91FF900895EF92FF920C
:100420000F931F93CF93DF937C01042F6115710508
:1004300051F0EB0110E005C0C70169910E94D7019E
:100440001F5F1017C8F3DF91CF911F910F91FF909D
:10045000EF900895DF93CF930F92CDB7DEB7698306
:10046000BE016F5F7F4F41E00E940E020F90CF915F
:10047000DF910895FF920F931F938C01F62E0E9437
:10048000A101F801828160E00E944707F8018381A1
:1004900060E00E944707F801848161E00E944707FD
:1004A000F801858161E00E947707F80185816F2D51
:1004B0000E9499070000000000000000F8018481FC
:1004C00060E00E944707F801858160E00E9477079D
:1004D000F80185816FEF0E9499071F910F91FF909E
:1004E000089562E00E943A02089561E00E943A0293
:1004F00008950F931F938C01FC01828160E00E949C
:100500004707F801838160E00E944707F801848172
:1005100060E00E944707F801828161E00E94FE06C8
:10052000F801838161E00E94FE06F801848161E0A8
:100530000E94FE06F801858160E00E947707F801BD
:1005400085816FEF0E9499071F910F9108950F9376
:100550001F938C010E947902C80168E30E943A024D
:10056000C80161E00E943A02C80166E00E943A02B6
:10057000C8016CE00E943A02C80162E00E943A029F
:10058000C80160E80E943A021F910F9108950F93ED
:10059000FC018BE691E09183808362834383248313
:1005A0000583CF010E94A7020F910895FC012481C9
:1005B0003581C9010895DC01FC0182819381809716
:1005C00014F080E00895FD01828193810196938368
:1005D000828384819581E80FF91F60870196FD0170
:1005E000958384832D913C9111978217930714F47E
:1005F00081E00895FD011582148281E008951F9223
:100600000F920FB60F920BB60F9211242F933F93B8
:100610004F935F936F937F938F939F93AF93BF930A
:10062000EF93FF93E0913302F091340260818BEEFF
:1006300091E00E94DB02FF91EF91BF91AF919F91FA
:100640008F917F916F915F914F913F912F910F907B
:100650000BBE0F900FBE0F901F9018951F920F9218
:100660000FB60F920BB60F9211242F933F934F9317
:100670005F936F937F938F939F93AF93BF93EF930A
:10068000FF93E091E701F091E80160818FE991E04B
:100690000E94DB02FF91EF91BF91AF919F918F91EB
:1006A0007F916F915F914F913F912F910F900BBE72
:1006B0000F900FBE0F901F901895DC01FC018281F6
:1006C000938101979383828386819781E80FF91F35
:1006D00040850196FD01978386832D913C91821779
:1006E000930714F017821682842F08951F920F9299
:1006F0000FB60F920BB60F9211240F931F932F93E7
:100700003F934F935F936F937F938F939F93AF9399
:10071000BF93EF93FF9380911502909116021816E4
:10072000190654F4009133021091340283E192E0EF
:100730000E945D03F801808380911502909116025A
:10074000892B31F4E0913102F091320288E9808303
:10075000FF91EF91BF91AF919F918F917F916F9199
:100760005F914F913F912F911F910F910F900BBE71
:100770000F900FBE0F901F9018951F920F920FB6FB
:100780000F920BB60F9211240F931F932F933F9349
:100790004F935F936F937F938F939F93AF93BF9389
:1007A000EF93FF938091C9019091CA011816190621
:1007B00054F40091E7011091E80187EC91E00E9468
:1007C0005D03F80180838091C9019091CA01892B52
:1007D00031F4E091E501F091E60188E98083FF9131
:1007E000EF91BF91AF919F918F917F916F915F91A9
:1007F0004F913F912F911F910F910F900BBE0F9032
:100800000FBE0F901F901895DC01FC01828193812F
:1008100001979383828386819781E80FF91F408532
:100820000196FD01978386832D913C918217930752
:1008300014F017821682842F0895FC01848195811B
:10084000892B19F42FEF3FEF06C0CF0102960E94CB
:100850000404282F30E0C9010895CF93DF93EC0101
:10086000EE81FF81E80FF91F8085DF91CF91089518
:10087000FC0184819581892B19F42FEF3FEF06C08D
:10088000CF0102960E942D04282F30E0C90108955F
:10089000FC011382128282819381978386839583E0
:1008A0008483089502960E9448040895FC0180E222
:1008B00090E091838083CF010E9448040895DC0179
:1008C000FC0182819381409714F080E00895FD013E
:1008D0008281938101969383828384819581E80F3D
:1008E000F91F60870196FD01958384832D913C91CA
:1008F00011978217930714F481E00895FD01158282
:10090000148281E00895CF93DF93EC018CA59DA51F
:100910004097E4F7F894CE018A960E945F04C85B82
:10092000DF4FE881F9818081806280837894DF9154
:10093000CF910895FC011382128282819381978363
:100940008683958384830895FC0180E190E0918300
:100950008083CF010E949A0408956F927F928F92B4
:100960009F92AF92BF92CF92DF92EF92FF920F933E
:100970001F936C015B014A013901FC0181E791E0A1
:1009800081939193CF010E945604C6018A960E94DA
:10099000A40482E490E0C80ED91EF601A192B1929F
:1009A000819291926192719201931193F182E0820E
:1009B0001F910F91FF90EF90DF90CF90BF90AF907D
:1009C0009F908F907F906F900895EF92FF920F937A
:1009D0001F938DE991E060E970E049E250E02BE27D
:1009E00030E00AE210E0FCE2EF2EF12C0E94AD04B0
:1009F00089EE91E068E970E049E950E02BE930E0E8
:100A00000AE910E0ECE9EE2EF12C0E94AD041F91F2
:100A10000F91FF90EF9008950F9385E392E06AE1C4
:100A20004BE12CE102E00E94C7028BE392E00E94BE
:100A30007E008DE392E00E949F0081E492E00E949C
:100A40009F0085E492E00E949F000F9108956091BD
:100A5000290170912A018DE392E00E94A60060EDC9
:100A600077E080E090E00E94D806609125017091C7
:100A700026018DE392E00E94A60068EE73E080E01C
:100A800090E00E94D80660914D0270914E0281E480
:100A900092E00E94A60060ED77E080E090E00E9486
:100AA000D806609127017091280181E492E00E94AC
:100AB000A60060ED77E080E090E00E94D8066091AB
:100AC0004D0270914E0281E492E00E94A60060ED1A
:100AD00077E080E090E00E94D806809149029091F2
:100AE0004A02019690934A028093490285E392E07C
:100AF0000E94750285E392E00E94710285E392E014
:100B000060E071E00E94DC0B6091490270914A0242
:100B100085E392E00E94A00C8091490290914A02E4
:100B20000397E4F4609127017091280181E492E039
:100B30000E94A60060ED77E080E090E00E94D80679
:100B400085E392E00E94750285E392E00E947102C3
:100B500085E392E069E071E00E94DC0B80912B015B
:100B600090912C010197A1F48091490290914A0241
:100B7000039771F485E392E00E94750285E392E0A9
:100B80000E94710285E392E06EE071E00E94DC0B4E
:100B900080912B0190912C01029709F048C080911F
:100BA000490290914A020397F1F4609127017091F4
:100BB000280181E492E00E94A600609125017091D5
:100BC00026018DE392E00E94A60085E392E00E9458
:100BD000750285E392E00E94710285E392E066E18E
:100BE00071E00E94DC0B8091490290914A020497C7
:100BF000F1F460914D0270914E0281E492E00E9406
:100C0000A6006091290170912A018DE392E00E9473
:100C1000A60085E392E00E94750285E392E00E94BF
:100C2000710285E392E069E171E00E94DC0B0895B6
:100C300080914B020E942E07882311F40E94270501
:100C40000895EF92FF920F931F9380E060E00E945F
:100C5000770781E060E00E9477070DE312E0C801AA
:100C600063E270E00E94580181E4E82E82E0F82EF1
:100C7000C7016FE170E00E94580185E492E062E2F2
:100C800070E00E9458016091250170912601C80111
:100C90000E94A6006091270170912801C7010E945F
:100CA000A60005E312E0C8010E947502C8010E9477
:100CB0007102C80160E271E00E94DC0B1F910F918C
:100CC000FF90EF9008951F920F920FB60F9211248C
:100CD0002F933F938F939F93AF93BF938091530232
:100CE00090915402A0915502B09156023091570252
:100CF0000196A11DB11D232F2D5F2D3720F02D57FB
:100D00000196A11DB11D2093570280935302909329
:100D10005402A0935502B093560280914F029091D5
:100D20005002A0915102B09152020196A11DB11D35
:100D300080934F0290935002A0935102B0935202BD
:100D4000BF91AF919F918F913F912F910F900FBEC7
:100D50000F901F9018956FB7F89420914F02309123
:100D60005002409151025091520282B790E0A0E0AF
:100D7000B0E006B600FE09C08F3F9105A105B105A0
:100D800021F02F5F3F4F4F4F5F4F6FBF542F432FC7
:100D9000322F2227280F391F4A1F5B1F82E0220FA4
:100DA000331F441F551F8A95D1F7B901CA01089511
:100DB000EF92FF920F931F93CF93DF937B018C01F0
:100DC0000E94AB06EB010EC00E94AB066C1B7D0BB4
:100DD000685E7340C8F30894E108F108010911093D
:100DE000C851DC4FE114F1040105110569F7DF91E9
:100DF000CF911F910F91FF90EF900895E82FE69506
:100E0000E695E695A82FB0E0613099F42FB7F894F5
:100E1000F0E0EE0FFF1FE55CFE4F0190F081E02D4A
:100E20009081A770B070A558BE4F8C91982B90837D
:100E300013C02FB7F894F0E0EE0FFF1FE55CFE4FF4
:100E40000190F081E02D9081A770B070A558BE4F41
:100E50008C918095892380832FBF0895A82FE82F38
:100E6000E695E695E695F0E0EE0FFF1FE75BFE4F97
:100E70000190F081E02DE081B0E0A770B070A5583E
:100E8000BE4F8C91E82309F0E1E08E2F0895E82F02
:100E9000E695E695E695A82FB0E0613099F42FB776
:100EA000F894F0E0EE0FFF1FE35DFE4F0190F0813C
:100EB000E02D9081A770B070A558BE4F8C91982BF3
:100EC000908313C02FB7F894F0E0EE0FFF1FE35D9F
:100ED000FE4F0190F081E02D9081A770B070A55871
:100EE000BE4F8C918095892380832FBF0895E82F72
:100EF000F0E0613051F4EE0FFF1FE55CFE4F019012
:100F0000F081E02D8FEF80830895EE0FFF1FE55CE9
:100F1000FE4F0190F081E02D10820895E82FF0E05F
:100F2000EE0FFF1FE75BFE4F0190F081E02D808107
:100F30000895E82FF0E0EE0FFF1FE35DFE4F0190F4
:100F4000F081E02D6083089593B7987F982B93BF2D
:100F500008959EB5987F982B9EBD089583E00E94CA
:100F6000A9071DBC1CBC87B7846087BF089595B5D1
:100F7000987F982B95BD089582E00E94B70714BC16
:100F800087B7806487BF0895EAE8F0E09081987F92
:100F9000982B9083089583E00E94C40710928900E3
:100FA00010928800EDE7F0E08081846080830895EE
:100FB000803140F4E82FF0E0EE0FFF1FE75AFD4FBD
:100FC000718360830895893031F48FB582608FBD5D
:100FD0008FB58E7F0AC08A3019F48FB5826002C047
:100FE0008FB58D7F8FBD8FB581608FBD1BBC1ABC47
:100FF00019BC18BC109279001092780008958FB532
:1010000080688FBD8FB58F7B8FBD08958FB580624F
:101010008FBD8FB58F7E8FBD08958FB588608FBDD2
:101020008FB58B7F8FBD08959BBD8ABD089599BDF7
:1010300088BD089590937900809378000895893051
:1010400049F480918B00826080938B0080918B00AB
:101050008E7F0EC08A3021F480918B00826003C0A5
:1010600080918B008D7F80938B0080918B008160BD
:1010700080938B001092870010928600109285005A
:101080001092840010928300109282000895EBE881
:10109000F0E080818068808380818F7B80830895E9
:1010A000EBE8F0E080818062808380818F7E8083A6
:1010B0000895EBE8F0E080818860808380818B7FF9
:1010C00080830895853019F40E94FF0708958430C5
:1010D00019F40E9406080895833019F40E940D083F
:1010E0000895823019F40E9447080895813019F458
:1010F0000E9450080895882311F40E945908089509
:101100009093870080938600089590938500809344
:101110008400089590938300809382000895EF9255
:10112000FF921F93CF93DF93182F7B018D31B0F087
:101130008F3111F413E014C08E3111F414E010C09B
:101140008D3109F49BC0853211F410E03DC084322A
:1011500011F411E039C0833219F48EC08330A0F14C
:101160008091580286FD0BC00E94AE0778948AE0F9
:101170000E94E30780915802806480935802809116
:101180005802C12FD0E090E0012E02C095958795BE
:101190000A94E2F780FD4CC087B3FE01ED57FE4F85
:1011A0009081892B87BB812F0E9462082091580271
:1011B00081E090E0012E02C0880F991F0A94E2F7A7
:1011C000282B2093580234C08091580287FD0BC011
:1011D0000E94CB0778948AE00E941F0880915802F1
:1011E00080688093580280915802C12FD0E090E02F
:1011F000012E02C0959587950A94E2F780FD24C0E0
:1012000082B1FE01ED57FE4F9081892B82B9812F6B
:101210000E9462082091580281E090E0012E02C0F5
:10122000880F991F0A94E2F7282B209358020CC0CC
:10123000153021F4C7010E94140822C0143021F493
:10124000C7010E9417081CC0133021F4C7010E9477
:101250001A0816C0123021F4C7010E94800810C07D
:10126000113021F4C7010E9485080AC0112341F4FE
:10127000C7010E948A0804C012E0A6CF15E070CF13
:10128000DF91CF911F91FF90EF9008951F920F92E1
:101290000FB60F920BB60F9211242F933F934F93DB
:1012A0005F936F937F938F939F93AF93BF93EF93CE
:1012B000FF9380915F0290916002892B29F0E09169
:1012C0005F02F09160020995FF91EF91BF91AF919C
:1012D0009F918F917F916F915F914F913F912F914E
:1012E0000F900BBE0F900FBE0F901F9018951F927E
:1012F0000F920FB60F920BB60F9211242F933F93BC
:101300004F935F936F937F938F939F93AF93BF930D
:10131000EF93FF938091690290916A02892B29F0E3
:10132000E0916902F0916A020995FF91EF91BF91F6
:10133000AF919F918F917F916F915F914F913F916D
:101340002F910F900BBE0F900FBE0F901F9018950E
:101350001F920F920FB60F920BB60F9211242F937C
:101360003F934F935F936F937F938F939F93AF932D
:10137000BF93EF93FF9380916F0290917002892B3E
:1013800029F0E0916F02F09170020995FF91EF91C1
:10139000BF91AF919F918F917F916F915F914F918D
:1013A0003F912F910F900BBE0F900FBE0F901F908B
:1013B00018951F920F920FB60F920BB60F92112431
:1013C0002F933F934F935F936F937F938F939F934D
:1013D000AF93BF93EF93FF9380915B0290915C0278
:1013E000892B29F0E0915B02F0915C020995FF9155
:1013F000EF91BF91AF919F918F917F916F915F918D
:101400004F913F912F910F900BBE0F900FBE0F90F9
:101410001F9018951F920F920FB60F920BB60F9256
:1014200011242F933F934F935F936F937F938F93E9
:101430009F93AF93BF93EF93FF938091610290913D
:101440006202892B29F0E0916102F0916202099514
:10145000FF91EF91BF91AF919F918F917F916F918C
:101460005F914F913F912F910F900BBE0F900FBE48
:101470000F901F9018951F920F920FB60F920BB6F8
:101480000F9211242F933F934F935F936F937F930A
:101490008F939F93AF93BF93EF93FF9380916302DA
:1014A00090916402892B29F0E0916302F09164022B
:1014B0000995FF91EF91BF91AF919F918F917F918E
:1014C0006F915F914F913F912F910F900BBE0F90B5
:1014D0000FBE0F901F9018951F920F920FB60F928C
:1014E0000BB60F9211242F933F934F935F936F93FB
:1014F0007F938F939F93AF93BF93EF93FF938091CD
:10150000650290916602892B29F0E0916502F091C5
:1015100066020995FF91EF91BF91AF919F918F91D5
:101520007F916F915F914F913F912F910F900BBEE3
:101530000F900FBE0F901F9018951F920F920FB62D
:101540000F920BB60F9211242F933F934F935F93FB
:101550006F937F938F939F93AF93BF93EF93FF937B
:101560008091670290916802892B29F0E0916702CF
:10157000F09168020995FF91EF91BF91AF919F9112
:101580008F917F916F915F914F913F912F910F902C
:101590000BBE0F900FBE0F901F9018951F920F92C9
:1015A0000FB60F920BB60F9211242F933F934F93C8
:1015B0005F936F937F938F939F93AF93BF93EF93BB
:1015C000FF9380916B0290916C02892B29F0E0913E
:1015D0006B02F0916C020995FF91EF91BF91AF9171
:1015E0009F918F917F916F915F914F913F912F913B
:1015F0000F900BBE0F900FBE0F901F9018951F926B
:101600000F920FB60F920BB60F9211242F933F93A8
:101610004F935F936F937F938F939F93AF93BF93FA
:10162000EF93FF938091710290917202892B29F0C0
:10163000E0917102F09172020995FF91EF91BF91D3
:10164000AF919F918F917F916F915F914F913F915A
:101650002F910F900BBE0F900FBE0F901F901895FB
:101660001F920F920FB60F920BB60F9211242F9369
:101670003F934F935F936F937F938F939F93AF931A
:10168000BF93EF93FF938091730290917402892B23
:1016900029F0E0917302F09174020995FF91EF91A6
:1016A000BF91AF919F918F917F916F915F914F917A
:1016B0003F912F910F900BBE0F900FBE0F901F9078
:1016C00018951F920F920FB60F920BB60F9211241E
:1016D0002F933F934F935F936F937F938F939F933A
:1016E000AF93BF93EF93FF93809175029091760231
:1016F000892B29F0E0917502F09176020995FF910E
:10170000EF91BF91AF919F918F917F916F915F9179
:101710004F913F912F910F900BBE0F900FBE0F90E6
:101720001F9018951F920F920FB60F920BB60F9243
:1017300011242F933F934F935F936F937F938F93D6
:101740009F93AF93BF93EF93FF9380917702909114
:101750007802892B29F0E0917702F09178020995BF
:10176000FF91EF91BF91AF919F918F917F916F9179
:101770005F914F913F912F910F900BBE0F900FBE35
:101780000F901F90189583E061E00E94770784E036
:1017900061E00E94770778940E9421060E94180653
:1017A000FDCFDC01ED91FC910190F081E02D0995D8
:1017B00008950E94D10B08950F931F93CF93DF9349
:1017C0008C01EB0104C02196C8010E94D90B6881ED
:1017D0006623C9F7DF91CF911F910F9108952F9242
:1017E0003F924F925F926F927F928F929F92AF92B1
:1017F000BF92CF92DF92EF92FF920F931F93DF93EE
:10180000CF93CDB7DEB7A0970FB6F894DEBF0FBE6B
:10181000CDBF1C016A017B014115510561057105B0
:1018200021F460E30E94D90B4FC08824992454010D
:10183000422E55246624772401E010E00C0F1D1F72
:10184000080D191DC701B601A30192010E94920E55
:10185000F80160830894811C911CA11CB11CC70174
:10186000B601A30192010E94920EC901DA016C0136
:101870007D01C114D104E104F104F1F681E0E82E08
:10188000F12CEC0EFD1EE80CF91C3E010894611CC5
:10189000711CD501C4010197A109B1096C01C818D7
:1018A000D9080FC0F601EE0DFF1D60816A3010F4FB
:1018B000605D01C0695CC1010E94D90B0894E10818
:1018C000F1086E147F0471F7A0960FB6F894DEBF8E
:1018D0000FBECDBFCF91DF911F910F91FF90EF9081
:1018E000DF90CF90BF90AF909F908F907F906F9040
:1018F0005F904F903F902F900895EF92FF920F933B
:101900001F93CF93DF93EC017A018B0177FF0BC01C
:101910006DE20E94D90B10950095F094E094E11CC3
:10192000F11C011D111DCE01B801A7012AE00E9482
:10193000EF0BDF91CF911F910F91FF90EF900895E2
:10194000AB01662757FD6095762F0E947D0C0895A8
:101950005058BB27AA270ED048C139D130F03ED10C
:1019600020F031F49F3F11F41EF42EC10EF4E095E7
:10197000E7FB24C1E92F4AD180F3BA176207730746
:101980008407950718F071F49EF562C10EF4E09596
:101990000B2EBA2FA02D0B01B90190010C01CA0129
:1019A000A0011124FF27591B99F0593F50F4503ED4
:1019B00068F11A16F040A22F232F342F4427585FC6
:1019C000F3CF469537952795A795F0405395C9F7DE
:1019D0007EF41F16BA0B620B730B840BBAF0915096
:1019E000A1F0FF0FBB1F661F771F881FC2F70EC035
:1019F000BA0F621F731F841F48F487957795679508
:101A0000B795F7959E3F08F0B3CF9395880F08F0F0
:101A10009927EE0F9795879508950CD0E6C0DED0F4
:101A200040F0D5D030F021F45F3F19F0C7C051111C
:101A300010C1CAC0EBD098F39923C9F35523B1F371
:101A4000951B550BBB27AA2762177307840738F02D
:101A50009F5F5F4F220F331F441FAA1FA9F333D08C
:101A60000E2E3AF0E0E830D091505040E695001C40
:101A7000CAF729D0FE2F27D0660F771F881FBB1FFC
:101A8000261737074807AB07B0E809F0BB0B802DD6
:101A9000BF01FF2793585F4F2AF09E3F510568F022
:101AA0008DC0D7C05F3FECF3983EDCF38695779509
:101AB0006795B795F7959F5FC9F7880F911D969524
:101AC000879597F90895E1E0660F771F881FBB1F80
:101AD000621773078407BA0720F0621B730B840B2D
:101AE000BA0BEE1F88F7E095089598D088F09F57BD
:101AF00090F0B92F9927B751A0F0D1F0660F771F5A
:101B0000881F991F1AF0BA95C9F712C0B13081F039
:101B10009FD0B1E008959CC0672F782F8827B85FC9
:101B200039F0B93FCCF3869577956795B395D9F79A
:101B30003EF490958095709561957F4F8F4F9F4FA4
:101B40000895E89409C097FB3EF4909580957095B0
:101B500061957F4F8F4F9F4F9923A9F0F92F96E9F9
:101B6000BB279395F695879577956795B795F1116E
:101B7000F8CFFAF4BB0F11F460FF1BC06F5F7F4F0B
:101B80008F4F9F4F16C0882311F096E911C077231D
:101B900021F09EE8872F762F05C0662371F096E826
:101BA000862F70E060E02AF09A95660F771F881FF5
:101BB000DAF7880F9695879597F9089597F99F67B3
:101BC00080E870E060E008959FEF80EC08950024C5
:101BD0000A941616170618060906089500240A9492
:101BE00012161306140605060895092E0394000C18
:101BF00011F4882352F0BB0F40F4BF2B11F460FFA7
:101C000004C06F5F7F4F8F4F9F4F089557FD9058CF
:101C1000440F551F59F05F3F71F04795880F97FBB0
:101C2000991F61F09F3F79F087950895121613066A
:101C30001406551FF2CF4695F1DF08C01616170699
:101C40001806991FF1CF86957105610508940895CE
:101C5000E894BB2766277727CB0197F908950BD027
:101C6000C4CFB5DF28F0BADF18F0952309F0A6CF6E
:101C7000ABCF1124EECFCADFA0F3959FD1F3950F20
:101C800050E0551F629FF001729FBB27F00DB11D00
:101C9000639FAA27F00DB11DAA1F649F6627B00D90
:101CA000A11D661F829F2227B00DA11D621F739F79
:101CB000B00DA11D621F839FA00D611D221F749F87
:101CC0003327A00D611D231F849F600D211D822FCE
:101CD000762F6A2F11249F5750408AF0E1F0882315
:101CE0004AF0EE0FFF1FBB1F661F771F881F915022
:101CF0005040A9F79E3F510570F060CFAACF5F3FDB
:101D0000ECF3983EDCF3869577956795B795F79554
:101D1000E7959F5FC1F7FE2B880F911D96958795DC
:101D200097F90895A1E21A2EAA1BBB1BFD010DC055
:101D3000AA1FBB1FEE1FFF1FA217B307E407F5077B
:101D400020F0A21BB30BE40BF50B661F771F881F57
:101D5000991F1A9469F760957095809590959B01ED
:101D6000AC01BD01CF010895EE0FFF1F0590F49166
:081D7000E02D0994F894FFCF67
:101D7800617274656661637400746170650074757E
:101D8800726E696E6700495200726576204952008A
:101D9800476F2100FF4600B400AA00010032003559
:101DA800003B003800230062006500310034003A2F
:101DB800003700220061006400300033003900362B
:101DC80000210020006300180019002600270005E4
:101DD80000040001000000000000002A02000000CA
:101DE800008304D60238041D0452040102040810BA
:0A1DF80020408020100880402000E9
:00000001FF
