:100000000C9448000C947C000C947C000C947C00B4
:100010000C947C000C947C000C947C000C947C0070
:100020000C947C000C94C2090C946B080C949109FC
:100030000C94FE080C942F090C943A080C94CD08EB
:100040000C9457050C947C000C9401030C949003C1
:100050000C947C000C947C000C947C000C947C0030
:100060000C9460090C94860A0C94F3090C94240AED
:100070000C94550A0C949C080C94D2020C944903DD
:100080000C947C000C947C000C947C00B804DF047D
:1000900011241FBECFEFD0E1DEBFCDBF88E483BF08
:1000A00084E00E94980612BE87B7816087BF78946B
:1000B00011E0A0E0B1E0ECE9F7E100E00BBF02C025
:1000C00007900D92AE35B107D9F712E0AEE5B1E079
:1000D00001C01D92A734B107E1F710E0C0E9D0E0FC
:1000E00004C02297FE010E94C80BCC38D107C9F783
:1000F0000E94B70A0C94CC0B0C9400001F93CF9372
:10010000DF93C0E0D0E0FE01E55DFE4F1081812F5E
:1001100061E00E94F205812F61E00E943B06FE0132
:10012000ED5CFE4F808160E070E00E9483072296C4
:10013000C830D10541F7DF91CF911F910895FC019F
:1001400010828AE090E0938382830895E091000119
:10015000E7FD15C0FF27E7FDF095EE0FFF1FE25A00
:10016000FE4F0190F081E02D818160E00E943B060E
:1001700006C02F5F81919191892B69F00EC020916B
:1001800000012F5FE22FFF27E7FDF0952150EE0FD2
:10019000FF1FE25AFE4F273064F320930001E091E5
:1001A0000001FF27E7FDF095EE0FFF1FE25AFE4F1B
:1001B0000190F081E02D309761F48FEF8093000182
:1001C00024EF31E080916F0190917001281B390B71
:1001D00012C0818161E00E943B06E0910001FF278F
:1001E000E7FDF095EE0FFF1FE25AFE4F0190F08100
:1001F000E02D2281338183B5820F83BD80916F0111
:1002000090917001820F931F9093700180936F0102
:10021000845F914020F01092700110926F01089558
:100220000E94B00687B78F7787BF85E00E94AB0634
:1002300089E066EA70E00E94CC0683B58C5083BDED
:1002400087B7806887BF1092700110926F018FEF9F
:10025000809300010895CF93DF93EC0180916E01AC
:10026000893010F080E03DC06983862F61E00E94F4
:10027000F205E881F0E0EE0FFF1FE25AFE4F8081A9
:100280009181C817D90761F140916E01442341F46F
:10029000EEE5F1E01192119281E0EE36F807D1F728
:1002A000EEE5F1E020E030E080819181892B61F47E
:1002B000F901EE0FFF1FE25AFE4FD183C08328835E
:1002C0004F5F40936E0106C02F5F3F4F329628303C
:1002D000310551F780916E01813011F40E941001B7
:1002E00081E0DF91CF910895CF93DF93EC018A8174
:1002F00060E00E943B068D8160E00E946B068D816C
:1003000060E00E948D068B8161E00E943B068C813B
:1003100061E00E943B060000000010C08C8160E09C
:100320000E943B0600000000000000008C8161E09C
:100330000E943B0600000000000000008D810E942A
:10034000820687FDEBCF8C8160E00E943B06DF9147
:10035000CF910895FF920F931F938C01F62E0E9468
:100360007401F801828161E00E943B06F8018381FB
:1003700060E00E943B06F801848161E00E943B0638
:10038000F801858161E00E946B06F80185816F2D7F
:100390000E948D060000000000000000F80184812A
:1003A00060E00E943B06F801858160E00E946B06D8
:1003B000F80185816FEF0E948D061F910F91FF90CC
:1003C0000895EF92FF920F931F93CF93DF937C01D9
:1003D000042F6115710551F0EB0110E005C0C70154
:1003E00069910E94AA011F5F1017C8F3DF91CF9196
:1003F0001F910F91FF90EF900895DF93CF930F928D
:10040000CDB7DEB76983BE016F5F7F4F41E00E94C9
:10041000E1010F90CF91DF910895FF920F931F9309
:100420008C01F62E0E947401F801828160E00E9426
:100430003B06F801838160E00E943B06F80184815D
:1004400061E00E943B06F801858161E00E946B0635
:10045000F80185816F2D0E948D06000000000000CC
:100460000000F801848160E00E943B06F80185816C
:1004700060E00E946B06F80185816FEF0E948D0697
:100480001F910F91FF90089562E00E940D02089560
:1004900061E00E940D0208950F931F938C01FC01EF
:1004A000828160E00E943B06F801838160E00E9447
:1004B0003B06F801848160E00E943B06F8018281DE
:1004C00061E00E94F205F801838161E00E94F2057B
:1004D000F801848161E00E94F205F801858160E005
:1004E0000E946B06F80185816FEF0E948D061F91B7
:1004F0000F9108950F931F938C010E944C02C80125
:1005000068E30E940D02C80161E00E940D02C8016B
:1005100066E00E940D02C8016CE00E940D02C80155
:1005200062E00E940D02C80160E80E940D021F9166
:100530000F9108950F93FC018FE391E091838083E5
:100540006283438324830583CF010E947A020F9143
:100550000895FC0124813581C9010895DC01FC0165
:1005600082819381809714F080E00895FD0182815B
:10057000938101969383828384819581E80FF91F8B
:1005800060870196FD01958384832D913C9111979D
:100590008217930714F481E00895FD0115821482F7
:1005A00081E008951F920F920FB60F920BB60F9233
:1005B00011242F933F934F935F936F937F938F9368
:1005C0009F93AF93BF93EF93FF93E0910702F09156
:1005D000080260818FEB91E00E94AE02FF91EF91E3
:1005E000BF91AF919F918F917F916F915F914F914B
:1005F0003F912F910F900BBE0F900FBE0F901F9049
:1006000018951F920F920FB60F920BB60F921124EE
:100610002F933F934F935F936F937F938F939F930A
:10062000AF93BF93EF93FF93E091BB01F091BC01B7
:10063000608183E791E00E94AE02FF91EF91BF914C
:10064000AF919F918F917F916F915F914F913F916A
:100650002F910F900BBE0F900FBE0F901F9018950B
:10066000DC01FC01828193810197938382838681DF
:100670009781E80FF91F40850196FD0197838683D6
:100680002D913C918217930714F017821682842FC4
:1006900008951F920F920FB60F920BB60F9211246E
:1006A0000F931F932F933F934F935F936F937F937A
:1006B0008F939F93AF93BF93EF93FF938091E90143
:1006C0009091EA011816190654F40091070210914E
:1006D000080287EE91E00E943003F8018083809148
:1006E000E9019091EA01892B31F4E0910502F09142
:1006F000060288E98083FF91EF91BF91AF919F91AE
:100700008F917F916F915F914F913F912F911F91A9
:100710000F910F900BBE0F900FBE0F901F9018956A
:100720001F920F920FB60F920BB60F9211240F93D8
:100730001F932F933F934F935F936F937F938F9369
:100740009F93AF93BF93EF93FF9380919D019091FF
:100750009E011816190654F40091BB011091BC01BA
:100760008BE991E00E943003F801808380919D0124
:1007700090919E01892B31F4E091B901F091BA0179
:1007800088E98083FF91EF91BF91AF919F918F9105
:100790007F916F915F914F913F912F911F910F9199
:1007A0000F900BBE0F900FBE0F901F901895DC019D
:1007B000FC01828193810197938382838681978153
:1007C000E80FF91F40850196FD01978386832D91DF
:1007D0003C918217930714F017821682842F089594
:1007E000FC0184819581892B19F42FEF3FEF06C01E
:1007F000CF0102960E94D703282F30E0C901089547
:10080000CF93DF93EC01EE81FF81E80FF91F808524
:10081000DF91CF910895FC0184819581892B19F492
:100820002FEF3FEF06C0CF0102960E940004282F51
:1008300030E0C9010895FC01138212828281938104
:100840009783868395838483089502960E941B0470
:100850000895FC0180E290E091838083CF010E94A3
:100860001B040895DC01FC0182819381409714F000
:1008700080E00895FD0182819381019693838283B4
:1008800084819581E80FF91F60870196FD019583AA
:1008900084832D913C9111978217930714F481E082
:1008A0000895FD011582148281E00895CF93DF93AE
:1008B000EC018CA59DA54097E4F7F894CE018A96AB
:1008C0000E943204C85BDF4FE881F9818081806239
:1008D00080837894DF91CF910895FC011382128276
:1008E0008281938197838683958384830895FC0115
:1008F00080E190E091838083CF010E946D04089590
:100900006F927F928F929F92AF92BF92CF92DF921F
:10091000EF92FF920F931F936C015B014A01390123
:10092000FC0185E491E081939193CF010E94290419
:10093000C6018A960E94770482E490E0C80ED91E10
:10094000F601A192B192819291926192719201937A
:100950001193F182E0821F910F91FF90EF90DF9051
:10096000CF90BF90AF909F908F907F906F900895A1
:10097000EF92FF920F931F9381E791E060E970E09F
:1009800049E250E02BE230E00AE210E0FCE2EF2E18
:10099000F12C0E9480048DEB91E068E970E049E958
:1009A00050E02BE930E00AE910E0ECE9EE2EF12C02
:1009B0000E9480041F910F91FF90EF9008950F9374
:1009C00089E092E06AE14BE12CE102E00E949A02A8
:1009D0008FE092E00E947E0081E192E00E949F0001
:1009E00085E192E00E949F0089E192E00E949F00D1
:1009F0000F910895EF92FF920F931F93CF93DF9380
:100A000089E092E00E94480289E092E00E9444025C
:100A10000E949F057B018C01C0E0D0E080E00E9435
:100A200022068130D9F780E00E9422068823D9F778
:100A30002196C536D10591F70E949F059B01AC0117
:100A40002E193F09400B510B60E071EE85EF95E0E8
:100A50000E94AB0B89E092E0B9010E94810B68EE25
:100A600073E080E090E00E94CC05DF91CF911F9170
:100A70000F91FF90EF90089580E060E00E946B0678
:100A800081E060E00E946B0681E192E063E270E049
:100A90000E942B0185E192E06FE170E00E942B0142
:100AA00089E192E062E270E00E942B0108951F92BA
:100AB0000F920FB60F9211242F933F938F939F9312
:100AC000AF93BF938091210290912202A0912302C3
:100AD000B0912402309125020196A11DB11D232F52
:100AE0002D5F2D3720F02D570196A11DB11D2093AC
:100AF00025028093210290932202A0932302B093B7
:100B0000240280911D0290911E02A0911F02B091BB
:100B100020020196A11DB11D80931D0290931E021B
:100B2000A0931F02B0932002BF91AF919F918F912C
:100B30003F912F910F900FBE0F901F9018956FB798
:100B4000F89420911D0230911E0240911F02509195
:100B5000200282B790E0A0E0B0E006B600FE09C037
:100B60008F3F9105A105B10521F02F5F3F4F4F4FFA
:100B70005F4F6FBF542F432F322F2227280F391F6B
:100B80004A1F5B1F82E0220F331F441F551F8A95A7
:100B9000D1F7B901CA010895EF92FF920F931F9305
:100BA000CF93DF937B018C010E949F05EB010EC068
:100BB0000E949F056C1B7D0B685E7340C8F3089410
:100BC000E108F10801091109C851DC4FE114F104F1
:100BD0000105110569F7DF91CF911F910F91FF90EA
:100BE000EF900895E82FE695E695E695A82FB0E0FA
:100BF000613099F42FB7F894F0E0EE0FFF1FE15F3A
:100C0000FE4F0190F081E02D9081A770B070A15B44
:100C1000BE4F8C91982B908313C02FB7F894F0E0BF
:100C2000EE0FFF1FE15FFE4F0190F081E02D9081FC
:100C3000A770B070A15BBE4F8C9180958923808393
:100C40002FBF0895A82FE82FE695E695E695F0E0EA
:100C5000EE0FFF1FE35EFE4F0190F081E02DE0817B
:100C6000B0E0A770B070A15BBE4F8C91E82309F093
:100C7000E1E08E2F0895E82FE695E695E695A82FFA
:100C8000B0E0613099F42FB7F894F0E0EE0FFF1F59
:100C9000EF5FFE4F0190F081E02D9081A770B07062
:100CA000A15BBE4F8C91982B908313C02FB7F89403
:100CB000F0E0EE0FFF1FEF5FFE4F0190F081E02D9F
:100CC0009081A770B070A15BBE4F8C9180958923F5
:100CD00080832FBF0895E82FF0E0613051F4EE0FCC
:100CE000FF1FE15FFE4F0190F081E02D8FEF8083C9
:100CF0000895EE0FFF1FE15FFE4F0190F081E02DA0
:100D000010820895E82FF0E0EE0FFF1FE35EFE4F24
:100D10000190F081E02D80810895E82FF0E0EE0F42
:100D2000FF1FEF5FFE4F0190F081E02D608308957B
:100D300093B7987F982B93BF08959EB5987F982B73
:100D40009EBD089583E00E949D061DBC1CBC87B714
:100D5000846087BF089595B5987F982B95BD0895B9
:100D600082E00E94AB0614BC87B7806487BF0895F9
:100D7000EAE8F0E09081987F982B9083089583E0D3
:100D80000E94B8061092890010928800EDE7F0E00A
:100D90008081846080830895803140F4E82FF0E002
:100DA000EE0FFF1FE95DFD4F718360830895893069
:100DB00031F48FB582608FBD8FB58E7F0AC08A30C7
:100DC00019F48FB5826002C08FB58D7F8FBD8FB54E
:100DD00081608FBD1BBC1ABC19BC18BC1092790075
:100DE0001092780008958FB580688FBD8FB58F7B86
:100DF0008FBD08958FB580628FBD8FB58F7E8FBDFB
:100E000008958FB588608FBD8FB58B7F8FBD089596
:100E10009BBD8ABD089599BD88BD089590937900C2
:100E2000809378000895893049F480918B00826026
:100E300080938B0080918B008E7F0EC08A3021F4CE
:100E400080918B00826003C080918B008D7F8093A6
:100E50008B0080918B00816080938B0010928700C3
:100E600010928600109285001092840010928300E8
:100E7000109282000895EBE8F0E080818068808322
:100E800080818F7B80830895EBE8F0E08081806231
:100E9000808380818F7E80830895EBE8F0E08081FD
:100EA0008860808380818B7F80830895853019F4EA
:100EB0000E94F3060895843019F40E94FA060895FA
:100EC000833019F40E9401070895823019F40E94BA
:100ED0003B070895813019F40E9444070895882340
:100EE00011F40E944D070895909387008093860027
:100EF00008959093850080938400089590938300D3
:100F0000809382000895EF92FF921F93CF93DF9317
:100F1000182F7B018D31B0F08F3111F413E014C024
:100F20008E3111F414E010C08D3109F49BC085326C
:100F300011F410E03DC0843211F411E039C0833265
:100F400019F48EC08330A0F18091260286FD0BC07B
:100F50000E94A20678948AE00E94D7068091260219
:100F600080648093260280912602C12FD0E090E019
:100F7000012E02C0959587950A94E2F780FD4CC03A
:100F800087B3FE01E95AFE4F9081892B87BB812FE1
:100F90000E9456072091260281E090E0012E02C0B7
:100FA000880F991F0A94E2F7282B2093260234C059
:100FB0008091260287FD0BC00E94BF0678948AE0CC
:100FC0000E941307809126028068809326028091F8
:100FD0002602C12FD0E090E0012E02C095958795A2
:100FE0000A94E2F780FD24C082B1FE01E95AFE4F67
:100FF0009081892B82B9812F0E9456072091260269
:1010000081E090E0012E02C0880F991F0A94E2F758
:10101000282B209326020CC0153021F4C7010E9412
:10102000080722C0143021F4C7010E940B071CC01E
:10103000133021F4C7010E940E0716C0123021F4AC
:10104000C7010E94740710C0113021F4C7010E942B
:1010500079070AC0112341F4C7010E947E0704C02A
:1010600012E0A6CF15E070CFDF91CF911F91FF90D6
:10107000EF9008951F920F920FB60F920BB60F923A
:1010800011242F933F934F935F936F937F938F938D
:101090009F93AF93BF93EF93FF9380912D02909115
:1010A0002E02892B29F0E0912D02F0912E02099554
:1010B000FF91EF91BF91AF919F918F917F916F9130
:1010C0005F914F913F912F910F900BBE0F900FBEEC
:1010D0000F901F9018951F920F920FB60F920BB69C
:1010E0000F9211242F933F934F935F936F937F93AE
:1010F0008F939F93AF93BF93EF93FF9380913702AA
:1011000090913802892B29F0E0913702F091380252
:101110000995FF91EF91BF91AF919F918F917F9131
:101120006F915F914F913F912F910F900BBE0F9058
:101130000FBE0F901F9018951F920F920FB60F922F
:101140000BB60F9211242F933F934F935F936F939E
:101150007F938F939F93AF93BF93EF93FF93809170
:101160003D0290913E02892B29F0E0913D02F091E1
:101170003E020995FF91EF91BF91AF919F918F91A1
:101180007F916F915F914F913F912F910F900BBE87
:101190000F900FBE0F901F9018951F920F920FB6D1
:1011A0000F920BB60F9211242F933F934F935F939F
:1011B0006F937F938F939F93AF93BF93EF93FF931F
:1011C0008091290290912A02892B29F0E09129022D
:1011D000F0912A020995FF91EF91BF91AF919F91F4
:1011E0008F917F916F915F914F913F912F910F90D0
:1011F0000BBE0F900FBE0F901F9018951F920F926D
:101200000FB60F920BB60F9211242F933F934F936B
:101210005F936F937F938F939F93AF93BF93EF935E
:10122000FF9380912F0290913002892B29F0E09159
:101230002F02F09130020995FF91EF91BF91AF918C
:101240009F918F917F916F915F914F913F912F91DE
:101250000F900BBE0F900FBE0F901F9018951F920E
:101260000F920FB60F920BB60F9211242F933F934C
:101270004F935F936F937F938F939F93AF93BF939E
:10128000EF93FF938091310290913202892B29F0E4
:10129000E0913102F09132020995FF91EF91BF91F7
:1012A000AF919F918F917F916F915F914F913F91FE
:1012B0002F910F900BBE0F900FBE0F901F9018959F
:1012C0001F920F920FB60F920BB60F9211242F930D
:1012D0003F934F935F936F937F938F939F93AF93BE
:1012E000BF93EF93FF938091330290913402892B47
:1012F00029F0E0913302F09134020995FF91EF91CA
:10130000BF91AF919F918F917F916F915F914F911D
:101310003F912F910F900BBE0F900FBE0F901F901B
:1013200018951F920F920FB60F920BB60F921124C1
:101330002F933F934F935F936F937F938F939F93DD
:10134000AF93BF93EF93FF93809135029091360254
:10135000892B29F0E0913502F09136020995FF9131
:10136000EF91BF91AF919F918F917F916F915F911D
:101370004F913F912F910F900BBE0F900FBE0F908A
:101380001F9018951F920F920FB60F920BB60F92E7
:1013900011242F933F934F935F936F937F938F937A
:1013A0009F93AF93BF93EF93FF93809139029091F6
:1013B0003A02892B29F0E0913902F0913A0209951D
:1013C000FF91EF91BF91AF919F918F917F916F911D
:1013D0005F914F913F912F910F900BBE0F900FBED9
:1013E0000F901F9018951F920F920FB60F920BB689
:1013F0000F9211242F933F934F935F936F937F939B
:101400008F939F93AF93BF93EF93FF9380913F028E
:1014100090914002892B29F0E0913F02F091400227
:101420000995FF91EF91BF91AF919F918F917F911E
:101430006F915F914F913F912F910F900BBE0F9045
:101440000FBE0F901F9018951F920F920FB60F921C
:101450000BB60F9211242F933F934F935F936F938B
:101460007F938F939F93AF93BF93EF93FF9380915D
:10147000410290914202892B29F0E0914102F091C2
:1014800042020995FF91EF91BF91AF919F918F918A
:101490007F916F915F914F913F912F910F900BBE74
:1014A0000F900FBE0F901F9018951F920F920FB6BE
:1014B0000F920BB60F9211242F933F934F935F938C
:1014C0006F937F938F939F93AF93BF93EF93FF930C
:1014D0008091430290914402892B29F0E0914302CC
:1014E000F09144020995FF91EF91BF91AF919F91C7
:1014F0008F917F916F915F914F913F912F910F90BD
:101500000BBE0F900FBE0F901F9018951F920F9259
:101510000FB60F920BB60F9211242F933F934F9358
:101520005F936F937F938F939F93AF93BF93EF934B
:10153000FF938091450290914602892B29F0E0911A
:101540004502F09146020995FF91EF91BF91AF914D
:101550009F918F917F916F915F914F913F912F91CB
:101560000F900BBE0F900FBE0F901F90189583E049
:1015700061E00E946B0684E061E00E946B06789453
:101580000E943C050E94FA04FDCFDC01ED91FC9124
:101590000190F081E02D099508950E94C50A0895F3
:1015A0002F923F924F925F926F927F928F929F9273
:1015B000AF92BF92CF92DF92EF92FF920F931F9361
:1015C000DF93CF93CDB7DEB7A0970FB6F894DEBF09
:1015D0000FBECDBF1C016A017B014115510561059C
:1015E000710521F460E30E94CD0A4FC0882499243C
:1015F0005401422E55246624772401E010E00C0F9C
:101600001D1F080D191DC701B601A30192010E94FB
:10161000890BF80160830894811C911CA11CB11CEA
:10162000C701B601A30192010E94890BC901DA0129
:101630006C017D01C114D104E104F104F1F681E0F3
:10164000E82EF12CEC0EFD1EE80CF91C3E0108946E
:10165000611C711CD501C4010197A109B1096C017C
:10166000C818D9080FC0F601EE0DFF1D60816A3061
:1016700010F4605D01C0695CC1010E94CD0A08944C
:10168000E108F1086E147F0471F7A0960FB6F89484
:10169000DEBF0FBECDBFCF91DF911F910F91FF90A5
:1016A000EF90DF90CF90BF90AF909F908F907F9002
:1016B0006F905F904F903F902F900895EF92FF9220
:1016C0000F931F93CF93DF93EC017A018B0177FF88
:1016D0000BC06DE20E94CD0A10950095F094E09445
:1016E000E11CF11C011D111DCE01B801A7012AE06A
:1016F0000E94D00ADF91CF911F910F91FF90EF9040
:101700000895AB01662757FD6095762F0E945E0B0A
:101710000895A1E21A2EAA1BBB1BFD010DC0AA1F32
:10172000BB1FEE1FFF1FA217B307E407F50720F04A
:10173000A21BB30BE40BF50B661F771F881F991FC5
:101740001A9469F760957095809590959B01AC010E
:10175000BD01CF01089597FB092E05260ED057FD38
:1017600004D0D7DF0AD0001C38F45095409530954E
:1017700021953F4F4F4F5F4F0895F6F79095809515
:10178000709561957F4F8F4F9F4F0895EE0FFF1F0C
:0C1790000590F491E02D0994F894FFCF2F
:10179C00FF320035003B0038002300620065003149
:1017AC000034003A0037002200610064003000333E
:1017BC0000390036002100200063001800190026B3
:1017CC00002700050004000100000000000000FDDF
:1017DC0001000000005604A9020B04F003250401CB
:0E17EC000204081020408020100880402000D9
:00000001FF
